{"abi":[{"type":"constructor","inputs":[{"name":"_treasury","type":"address","internalType":"address"},{"name":"_owner","type":"address","internalType":"address"}],"stateMutability":"nonpayable"},{"type":"function","name":"BPS","inputs":[],"outputs":[{"name":"","type":"uint256","internalType":"uint256"}],"stateMutability":"view"},{"type":"function","name":"EXTENDED_BPS","inputs":[],"outputs":[{"name":"","type":"uint256","internalType":"uint256"}],"stateMutability":"view"},{"type":"function","name":"MAX_PLATFORM_SHARE_BPS","inputs":[],"outputs":[{"name":"","type":"uint256","internalType":"uint256"}],"stateMutability":"view"},{"type":"function","name":"MIN_BOOTSTRAP_ETH","inputs":[],"outputs":[{"name":"","type":"uint256","internalType":"uint256"}],"stateMutability":"view"},{"type":"function","name":"POSITION_1_ALLOCATION_BPS","inputs":[],"outputs":[{"name":"","type":"uint256","internalType":"uint256"}],"stateMutability":"view"},{"type":"function","name":"POSITION_2_ALLOCATION_BPS","inputs":[],"outputs":[{"name":"","type":"uint256","internalType":"uint256"}],"stateMutability":"view"},{"type":"function","name":"POSITION_3_ALLOCATION_BPS","inputs":[],"outputs":[{"name":"","type":"uint256","internalType":"uint256"}],"stateMutability":"view"},{"type":"function","name":"POSITION_4_ALLOCATION_BPS","inputs":[],"outputs":[{"name":"","type":"uint256","internalType":"uint256"}],"stateMutability":"view"},{"type":"function","name":"POSITION_5_ALLOCATION_BPS","inputs":[],"outputs":[{"name":"","type":"uint256","internalType":"uint256"}],"stateMutability":"view"},{"type":"function","name":"POSITION_MCAP_MULTIPLIER","inputs":[],"outputs":[{"name":"","type":"uint256","internalType":"uint256"}],"stateMutability":"view"},{"type":"function","name":"POSITION_OVERLAP_BPS","inputs":[],"outputs":[{"name":"","type":"uint256","internalType":"uint256"}],"stateMutability":"view"},{"type":"function","name":"RETIREMENT_OFFSET","inputs":[],"outputs":[{"name":"","type":"uint256","internalType":"uint256"}],"stateMutability":"view"},{"type":"function","name":"calculateFees","inputs":[{"name":"amount","type":"uint256","internalType":"uint256"}],"outputs":[{"name":"totalFee","type":"uint256","internalType":"uint256"},{"name":"beneficiaryShare","type":"uint256","internalType":"uint256"},{"name":"platformShare","type":"uint256","internalType":"uint256"}],"stateMutability":"view"},{"type":"function","name":"factory","inputs":[],"outputs":[{"name":"","type":"address","internalType":"address"}],"stateMutability":"view"},{"type":"function","name":"getStartingLimit","inputs":[{"name":"startMcap","type":"uint256","internalType":"uint256"}],"outputs":[{"name":"limitBps","type":"uint256","internalType":"uint256"}],"stateMutability":"pure"},{"type":"function","name":"getStartingTax","inputs":[{"name":"startMcap","type":"uint256","internalType":"uint256"}],"outputs":[{"name":"tax","type":"uint256","internalType":"uint256"}],"stateMutability":"pure"},{"type":"function","name":"isOperational","inputs":[],"outputs":[{"name":"","type":"bool","internalType":"bool"}],"stateMutability":"view"},{"type":"function","name":"owner","inputs":[],"outputs":[{"name":"","type":"address","internalType":"address"}],"stateMutability":"view"},{"type":"function","name":"paused","inputs":[],"outputs":[{"name":"","type":"bool","internalType":"bool"}],"stateMutability":"view"},{"type":"function","name":"platformShareBps","inputs":[],"outputs":[{"name":"","type":"uint256","internalType":"uint256"}],"stateMutability":"view"},{"type":"function","name":"renounceOwnership","inputs":[],"outputs":[],"stateMutability":"nonpayable"},{"type":"function","name":"setFactory","inputs":[{"name":"_factory","type":"address","internalType":"address"}],"outputs":[],"stateMutability":"nonpayable"},{"type":"function","name":"setPaused","inputs":[{"name":"_paused","type":"bool","internalType":"bool"}],"outputs":[],"stateMutability":"nonpayable"},{"type":"function","name":"setPlatformShareBps","inputs":[{"name":"_shareBps","type":"uint256","internalType":"uint256"}],"outputs":[],"stateMutability":"nonpayable"},{"type":"function","name":"setTreasury","inputs":[{"name":"_treasury","type":"address","internalType":"address"}],"outputs":[],"stateMutability":"nonpayable"},{"type":"function","name":"transferOwnership","inputs":[{"name":"newOwner","type":"address","internalType":"address"}],"outputs":[],"stateMutability":"nonpayable"},{"type":"function","name":"treasury","inputs":[],"outputs":[{"name":"","type":"address","internalType":"address"}],"stateMutability":"view"},{"type":"event","name":"FactoryUpdated","inputs":[{"name":"oldFactory","type":"address","indexed":true,"internalType":"address"},{"name":"newFactory","type":"address","indexed":true,"internalType":"address"}],"anonymous":false},{"type":"event","name":"OwnershipTransferred","inputs":[{"name":"previousOwner","type":"address","indexed":true,"internalType":"address"},{"name":"newOwner","type":"address","indexed":true,"internalType":"address"}],"anonymous":false},{"type":"event","name":"PausedUpdated","inputs":[{"name":"paused","type":"bool","indexed":false,"internalType":"bool"}],"anonymous":false},{"type":"event","name":"PlatformShareBpsUpdated","inputs":[{"name":"oldShare","type":"uint256","indexed":false,"internalType":"uint256"},{"name":"newShare","type":"uint256","indexed":false,"internalType":"uint256"}],"anonymous":false},{"type":"event","name":"TreasuryUpdated","inputs":[{"name":"oldTreasury","type":"address","indexed":true,"internalType":"address"},{"name":"newTreasury","type":"address","indexed":true,"internalType":"address"}],"anonymous":false},{"type":"error","name":"InvalidAddress","inputs":[]},{"type":"error","name":"InvalidShare","inputs":[]},{"type":"error","name":"OwnableInvalidOwner","inputs":[{"name":"owner","type":"address","internalType":"address"}]},{"type":"error","name":"OwnableUnauthorizedAccount","inputs":[{"name":"account","type":"address","internalType":"address"}]}],"bytecode":{"object":"0x6080346100f057601f6108f938819003918201601f19168301916001600160401b038311848410176100f45780849260409485528339810103126100f057602061004882610108565b916001600160a01b0391829161005e9101610108565b169081156100d8575f549260018060a01b03199280848616175f558260405195167f8be0079c531659141344cd1fd0a4f28419497f9722a3daafe3b4186f6b6457e05f80a3169182156100c957506001541617600155610bb86002556040516107dc908161011d8239f35b63e6c4247b60e01b8152600490fd5b604051631e4fbdf760e01b81525f6004820152602490fd5b5f80fd5b634e487b7160e01b5f52604160045260245ffd5b51906001600160a01b03821682036100f05756fe6080604090808252600480361015610015575f80fd5b5f3560e01c918263153b9302146107145750816316c38b3c146106a55781631b206fa8146106895781632132b9dd1461066d578163249d39e91461065157816338fdee37146106345781633c9f40d31461060f57816352238fdd1461059e5781635bb47808146105295781635c975abb1461050357816361d027b3146104db578163715018a6146104845781638da5cb5b1461045d5781638ee80284146103f257816392138228146103d657816394714065146103b85781639fceef3f1461039c578163b593ff2f1461037f578163bdc1525e1461035e578163c45a015514610336578163c6a37bf0146102d5578163c7bea108146102b9578163cd905dff14610294578163ef26be5714610279578163f0f44260146101f7578163f2fde38b14610168575063f77f8ea414610149575f80fd5b34610164575f36600319011261016457602090516101868152f35b5f80fd5b8234610164576020366003190112610164576001600160a01b038235818116939192908490036101645761019a61077b565b83156101e15750505f54826bffffffffffffffffffffffff60a01b8216175f55167f8be0079c531659141344cd1fd0a4f28419497f9722a3daafe3b4186f6b6457e05f80a3005b905f6024925191631e4fbdf760e01b8352820152fd5b8234610164576020366003190112610164576001600160a01b038235818116939192908490036101645761022961077b565b831561026c575050816001549182167f4ab5be82436d353e61ca18726e984e561f5c1cc7c6d38b29d2553c790434705a5f80a36001600160a01b03191617600155005b5163e6c4247b60e01b8152fd5b8234610164575f366003190112610164576020905160028152f35b8234610164575f3660031901126101645760209060ff60035460a01c16159051908152f35b8234610164575f366003190112610164576020905161493e8152f35b823461016457602036600319011261016457670de0b6b3a764000082350490600a820291808304600a14901517156103235760209250600a821061031a575b51908152f35b600a9150610314565b601183634e487b7160e01b5f525260245ffd5b8234610164575f3660031901126101645760035490516001600160a01b039091168152602090f35b8234610164575f366003190112610164576020905166038d7ea4c680008152f35b8234610164575f3660031901126101645760209051620124f88152f35b8234610164575f36600319011261016457602090516101f48152f35b8234610164575f366003190112610164576020906002549051908152f35b8234610164575f36600319011261016457602090516112508152f35b82346101645760203660031901126101645781359161040f61077b565b611388831161044f57507ffd711eb9c7b082e1202cf3f0e4d5860cf57642719be6084181cc608d77c132c7906002548151908152836020820152a1600255005b905163040357dd60e21b8152fd5b8234610164575f366003190112610164575f5490516001600160a01b039091168152602090f35b34610164575f3660031901126101645761049c61077b565b5f80546001600160a01b0319811682556001600160a01b03167f8be0079c531659141344cd1fd0a4f28419497f9722a3daafe3b4186f6b6457e08280a3005b8234610164575f3660031901126101645760015490516001600160a01b039091168152602090f35b8234610164575f3660031901126101645760209060ff60035460a01c1690519015158152f35b8234610164576020366003190112610164576001600160a01b038235818116939192908490036101645761055b61077b565b831561026c575050816003549182167f333c7678baf16017cf31e1d2f90143a62aab01a67a0807f6836a4304ceabb5555f80a36001600160a01b03191617600355005b8234610164576020366003190112610164578135906002548083029083820414831517156105fc576127109004908183038381116105e9576060945081519384526020840152820152f35b601185634e487b7160e01b5f525260245ffd5b601184634e487b7160e01b5f525260245ffd5b82346101645760203660031901126101645761062d6020923561072d565b9051908152f35b8234610164575f3660031901126101645760209051620186a08152f35b8234610164575f36600319011261016457602090516127108152f35b8234610164575f36600319011261016457602090516104948152f35b8234610164575f36600319011261016457602090516113888152f35b9050346101645760203660031901126101645735908115158092036101645760207f31311016d7204faff81880133e3db244ae8a8b9ce15e83e2432258226d15f942916106f061077b565b51838152a16003805460ff60a01b191660a09290921b60ff60a01b16919091179055005b34610164575f3660031901126101645780601060209252f35b670de0b6b3a76400009004600a811015610774576101f490808202918204036107605761157c9081039081116107605790565b634e487b7160e01b5f52601160045260245ffd5b506101f490565b5f546001600160a01b0316330361078e57565b60405163118cdaa760e01b8152336004820152602490fdfea26469706673582212205deeb70479c32cef73de2b15ef22569052ac75d41bc7d80af67f6bde701de9d364736f6c63430008180033","linkReferences":{}},"methodIdentifiers":{"BPS()":"249d39e9","EXTENDED_BPS()":"38fdee37","MAX_PLATFORM_SHARE_BPS()":"1b206fa8","MIN_BOOTSTRAP_ETH()":"bdc1525e","POSITION_1_ALLOCATION_BPS()":"b593ff2f","POSITION_2_ALLOCATION_BPS()":"c7bea108","POSITION_3_ALLOCATION_BPS()":"92138228","POSITION_4_ALLOCATION_BPS()":"2132b9dd","POSITION_5_ALLOCATION_BPS()":"f77f8ea4","POSITION_MCAP_MULTIPLIER()":"153b9302","POSITION_OVERLAP_BPS()":"9fceef3f","RETIREMENT_OFFSET()":"ef26be57","calculateFees(uint256)":"52238fdd","factory()":"c45a0155","getStartingLimit(uint256)":"c6a37bf0","getStartingTax(uint256)":"3c9f40d3","isOperational()":"cd905dff","owner()":"8da5cb5b","paused()":"5c975abb","platformShareBps()":"94714065","renounceOwnership()":"715018a6","setFactory(address)":"5bb47808","setPaused(bool)":"16c38b3c","setPlatformShareBps(uint256)":"8ee80284","setTreasury(address)":"f0f44260","transferOwnership(address)":"f2fde38b","treasury()":"61d027b3"},"id":82}