{"abi":[{"type":"constructor","inputs":[{"name":"_config","type":"address","internalType":"contract ClawclickConfig"},{"name":"_poolManager","type":"address","internalType":"contract IPoolManager"},{"name":"_hook","type":"address","internalType":"contract ClawclickHook"},{"name":"_positionManager","type":"address","internalType":"address"},{"name":"_bootstrapETH","type":"address","internalType":"contract BootstrapETH"},{"name":"_owner","type":"address","internalType":"address"}],"stateMutability":"nonpayable"},{"type":"receive","stateMutability":"payable"},{"type":"function","name":"BPS","inputs":[],"outputs":[{"name":"","type":"uint256","internalType":"uint256"}],"stateMutability":"view"},{"type":"function","name":"MAX_DEV_SUPPLY_BPS","inputs":[],"outputs":[{"name":"","type":"uint256","internalType":"uint256"}],"stateMutability":"view"},{"type":"function","name":"MAX_TARGET_MCAP","inputs":[],"outputs":[{"name":"","type":"uint256","internalType":"uint256"}],"stateMutability":"view"},{"type":"function","name":"MIN_TARGET_MCAP","inputs":[],"outputs":[{"name":"","type":"uint256","internalType":"uint256"}],"stateMutability":"view"},{"type":"function","name":"PERMIT2","inputs":[],"outputs":[{"name":"","type":"address","internalType":"address"}],"stateMutability":"view"},{"type":"function","name":"TICK_LOWER","inputs":[],"outputs":[{"name":"","type":"int24","internalType":"int24"}],"stateMutability":"view"},{"type":"function","name":"TICK_UPPER","inputs":[],"outputs":[{"name":"","type":"int24","internalType":"int24"}],"stateMutability":"view"},{"type":"function","name":"TOTAL_SUPPLY","inputs":[],"outputs":[{"name":"","type":"uint256","internalType":"uint256"}],"stateMutability":"view"},{"type":"function","name":"allTokens","inputs":[{"name":"","type":"uint256","internalType":"uint256"}],"outputs":[{"name":"","type":"address","internalType":"address"}],"stateMutability":"view"},{"type":"function","name":"bootstrapETH","inputs":[],"outputs":[{"name":"","type":"address","internalType":"contract BootstrapETH"}],"stateMutability":"view"},{"type":"function","name":"checkDevCap","inputs":[{"name":"poolId","type":"bytes32","internalType":"PoolId"},{"name":"devAddress","type":"address","internalType":"address"}],"outputs":[{"name":"","type":"bool","internalType":"bool"}],"stateMutability":"view"},{"type":"function","name":"clearDevOverride","inputs":[{"name":"poolId","type":"bytes32","internalType":"PoolId"}],"outputs":[],"stateMutability":"nonpayable"},{"type":"function","name":"collectFeesFromPosition","inputs":[{"name":"poolId","type":"bytes32","internalType":"PoolId"},{"name":"positionIndex","type":"uint256","internalType":"uint256"}],"outputs":[],"stateMutability":"nonpayable"},{"type":"function","name":"config","inputs":[],"outputs":[{"name":"","type":"address","internalType":"contract ClawclickConfig"}],"stateMutability":"view"},{"type":"function","name":"createLaunch","inputs":[{"name":"params","type":"tuple","internalType":"struct ClawclickFactory.CreateParams","components":[{"name":"name","type":"string","internalType":"string"},{"name":"symbol","type":"string","internalType":"string"},{"name":"beneficiary","type":"address","internalType":"address"},{"name":"agentWallet","type":"address","internalType":"address"},{"name":"targetMcapETH","type":"uint256","internalType":"uint256"},{"name":"feeSplit","type":"tuple","internalType":"struct ClawclickFactory.FeeSplit","components":[{"name":"wallets","type":"address[5]","internalType":"address[5]"},{"name":"percentages","type":"uint16[5]","internalType":"uint16[5]"},{"name":"count","type":"uint8","internalType":"uint8"}]}]}],"outputs":[{"name":"token","type":"address","internalType":"address"},{"name":"poolId","type":"bytes32","internalType":"PoolId"}],"stateMutability":"payable"},{"type":"function","name":"getTokenAtIndex","inputs":[{"name":"index","type":"uint256","internalType":"uint256"}],"outputs":[{"name":"","type":"address","internalType":"address"}],"stateMutability":"view"},{"type":"function","name":"getTokenCount","inputs":[],"outputs":[{"name":"","type":"uint256","internalType":"uint256"}],"stateMutability":"view"},{"type":"function","name":"hook","inputs":[],"outputs":[{"name":"","type":"address","internalType":"contract ClawclickHook"}],"stateMutability":"view"},{"type":"function","name":"launchByPoolId","inputs":[{"name":"poolId","type":"bytes32","internalType":"PoolId"}],"outputs":[{"name":"","type":"tuple","internalType":"struct ClawclickFactory.LaunchInfo","components":[{"name":"token","type":"address","internalType":"address"},{"name":"beneficiary","type":"address","internalType":"address"},{"name":"agentWallet","type":"address","internalType":"address"},{"name":"creator","type":"address","internalType":"address"},{"name":"poolId","type":"bytes32","internalType":"PoolId"},{"name":"poolKey","type":"tuple","internalType":"struct PoolKey","components":[{"name":"currency0","type":"address","internalType":"Currency"},{"name":"currency1","type":"address","internalType":"Currency"},{"name":"fee","type":"uint24","internalType":"uint24"},{"name":"tickSpacing","type":"int24","internalType":"int24"},{"name":"hooks","type":"address","internalType":"contract IHooks"}]},{"name":"targetMcapETH","type":"uint256","internalType":"uint256"},{"name":"createdAt","type":"uint256","internalType":"uint256"},{"name":"createdBlock","type":"uint256","internalType":"uint256"},{"name":"name","type":"string","internalType":"string"},{"name":"symbol","type":"string","internalType":"string"},{"name":"feeSplit","type":"tuple","internalType":"struct ClawclickFactory.FeeSplit","components":[{"name":"wallets","type":"address[5]","internalType":"address[5]"},{"name":"percentages","type":"uint16[5]","internalType":"uint16[5]"},{"name":"count","type":"uint8","internalType":"uint8"}]}]}],"stateMutability":"view"},{"type":"function","name":"launchByToken","inputs":[{"name":"token","type":"address","internalType":"address"}],"outputs":[{"name":"","type":"tuple","internalType":"struct ClawclickFactory.LaunchInfo","components":[{"name":"token","type":"address","internalType":"address"},{"name":"beneficiary","type":"address","internalType":"address"},{"name":"agentWallet","type":"address","internalType":"address"},{"name":"creator","type":"address","internalType":"address"},{"name":"poolId","type":"bytes32","internalType":"PoolId"},{"name":"poolKey","type":"tuple","internalType":"struct PoolKey","components":[{"name":"currency0","type":"address","internalType":"Currency"},{"name":"currency1","type":"address","internalType":"Currency"},{"name":"fee","type":"uint24","internalType":"uint24"},{"name":"tickSpacing","type":"int24","internalType":"int24"},{"name":"hooks","type":"address","internalType":"contract IHooks"}]},{"name":"targetMcapETH","type":"uint256","internalType":"uint256"},{"name":"createdAt","type":"uint256","internalType":"uint256"},{"name":"createdBlock","type":"uint256","internalType":"uint256"},{"name":"name","type":"string","internalType":"string"},{"name":"symbol","type":"string","internalType":"string"},{"name":"feeSplit","type":"tuple","internalType":"struct ClawclickFactory.FeeSplit","components":[{"name":"wallets","type":"address[5]","internalType":"address[5]"},{"name":"percentages","type":"uint16[5]","internalType":"uint16[5]"},{"name":"count","type":"uint8","internalType":"uint8"}]}]}],"stateMutability":"view"},{"type":"function","name":"mintNextPosition","inputs":[{"name":"poolId","type":"bytes32","internalType":"PoolId"},{"name":"positionIndex","type":"uint256","internalType":"uint256"}],"outputs":[],"stateMutability":"nonpayable"},{"type":"function","name":"owner","inputs":[],"outputs":[{"name":"","type":"address","internalType":"address"}],"stateMutability":"view"},{"type":"function","name":"poolActivated","inputs":[{"name":"poolId","type":"bytes32","internalType":"PoolId"}],"outputs":[{"name":"","type":"bool","internalType":"bool"}],"stateMutability":"view"},{"type":"function","name":"poolManager","inputs":[],"outputs":[{"name":"","type":"address","internalType":"contract IPoolManager"}],"stateMutability":"view"},{"type":"function","name":"poolStates","inputs":[{"name":"","type":"bytes32","internalType":"PoolId"}],"outputs":[{"name":"token","type":"address","internalType":"address"},{"name":"beneficiary","type":"address","internalType":"address"},{"name":"startingMCAP","type":"uint256","internalType":"uint256"},{"name":"graduationMCAP","type":"uint256","internalType":"uint256"},{"name":"totalSupply","type":"uint256","internalType":"uint256"},{"name":"recycledETH","type":"uint256","internalType":"uint256"},{"name":"activated","type":"bool","internalType":"bool"},{"name":"graduated","type":"bool","internalType":"bool"}],"stateMutability":"view"},{"type":"function","name":"positionManager","inputs":[],"outputs":[{"name":"","type":"address","internalType":"address"}],"stateMutability":"view"},{"type":"function","name":"positionTokenId","inputs":[{"name":"poolId","type":"bytes32","internalType":"PoolId"}],"outputs":[{"name":"","type":"uint256","internalType":"uint256"}],"stateMutability":"view"},{"type":"function","name":"previewSqrtPrice","inputs":[{"name":"targetMcapETH","type":"uint256","internalType":"uint256"}],"outputs":[{"name":"","type":"uint160","internalType":"uint160"}],"stateMutability":"pure"},{"type":"function","name":"renounceOwnership","inputs":[],"outputs":[],"stateMutability":"nonpayable"},{"type":"function","name":"retireOldPosition","inputs":[{"name":"poolId","type":"bytes32","internalType":"PoolId"},{"name":"positionIndex","type":"uint256","internalType":"uint256"}],"outputs":[],"stateMutability":"nonpayable"},{"type":"function","name":"tokenIdToPoolId","inputs":[{"name":"","type":"uint256","internalType":"uint256"}],"outputs":[{"name":"","type":"bytes32","internalType":"PoolId"}],"stateMutability":"view"},{"type":"function","name":"totalLaunches","inputs":[],"outputs":[{"name":"","type":"uint256","internalType":"uint256"}],"stateMutability":"view"},{"type":"function","name":"transferOwnership","inputs":[{"name":"newOwner","type":"address","internalType":"address"}],"outputs":[],"stateMutability":"nonpayable"},{"type":"event","name":"FeeSplitDistributed","inputs":[{"name":"poolId","type":"bytes32","indexed":true,"internalType":"PoolId"},{"name":"wallet","type":"address","indexed":true,"internalType":"address"},{"name":"amount","type":"uint256","indexed":false,"internalType":"uint256"}],"anonymous":false},{"type":"event","name":"FeesCollectedFromPosition","inputs":[{"name":"poolId","type":"bytes32","indexed":true,"internalType":"PoolId"},{"name":"positionIndex","type":"uint256","indexed":true,"internalType":"uint256"},{"name":"tokenId","type":"uint256","indexed":false,"internalType":"uint256"},{"name":"ethAmount","type":"uint256","indexed":false,"internalType":"uint256"},{"name":"tokenAmount","type":"uint256","indexed":false,"internalType":"uint256"}],"anonymous":false},{"type":"event","name":"FreeBootstrapUsed","inputs":[{"name":"creator","type":"address","indexed":true,"internalType":"address"},{"name":"amount","type":"uint256","indexed":false,"internalType":"uint256"}],"anonymous":false},{"type":"event","name":"LaunchFeePaid","inputs":[{"name":"user","type":"address","indexed":true,"internalType":"address"},{"name":"amount","type":"uint256","indexed":false,"internalType":"uint256"}],"anonymous":false},{"type":"event","name":"LiquidityAdded","inputs":[{"name":"token","type":"address","indexed":true,"internalType":"address"},{"name":"poolId","type":"bytes32","indexed":true,"internalType":"PoolId"},{"name":"tokenAmount","type":"uint256","indexed":false,"internalType":"uint256"},{"name":"liquidityMinted","type":"uint256","indexed":false,"internalType":"uint256"}],"anonymous":false},{"type":"event","name":"LiquidityRepositioned","inputs":[{"name":"token","type":"address","indexed":true,"internalType":"address"},{"name":"poolId","type":"bytes32","indexed":true,"internalType":"PoolId"},{"name":"oldTokenId","type":"uint256","indexed":false,"internalType":"uint256"},{"name":"newTokenId","type":"uint256","indexed":false,"internalType":"uint256"},{"name":"tickLower","type":"int24","indexed":false,"internalType":"int24"},{"name":"tickUpper","type":"int24","indexed":false,"internalType":"int24"}],"anonymous":false},{"type":"event","name":"OwnershipTransferred","inputs":[{"name":"previousOwner","type":"address","indexed":true,"internalType":"address"},{"name":"newOwner","type":"address","indexed":true,"internalType":"address"}],"anonymous":false},{"type":"event","name":"PoolActivated","inputs":[{"name":"poolId","type":"bytes32","indexed":true,"internalType":"PoolId"},{"name":"isDevActivation","type":"bool","indexed":false,"internalType":"bool"},{"name":"liquidityMinted","type":"uint256","indexed":false,"internalType":"uint256"}],"anonymous":false},{"type":"event","name":"PositionMinted","inputs":[{"name":"poolId","type":"bytes32","indexed":true,"internalType":"PoolId"},{"name":"positionIndex","type":"uint256","indexed":true,"internalType":"uint256"},{"name":"tokenId","type":"uint256","indexed":false,"internalType":"uint256"},{"name":"tokenAmount","type":"uint256","indexed":false,"internalType":"uint256"}],"anonymous":false},{"type":"event","name":"PositionRetired","inputs":[{"name":"poolId","type":"bytes32","indexed":true,"internalType":"PoolId"},{"name":"positionIndex","type":"uint256","indexed":true,"internalType":"uint256"},{"name":"tokenId","type":"uint256","indexed":false,"internalType":"uint256"},{"name":"ethRecovered","type":"uint256","indexed":false,"internalType":"uint256"},{"name":"tokensRecovered","type":"uint256","indexed":false,"internalType":"uint256"}],"anonymous":false},{"type":"event","name":"TokenLaunched","inputs":[{"name":"token","type":"address","indexed":true,"internalType":"address"},{"name":"beneficiary","type":"address","indexed":true,"internalType":"address"},{"name":"creator","type":"address","indexed":true,"internalType":"address"},{"name":"poolId","type":"bytes32","indexed":false,"internalType":"PoolId"},{"name":"targetMcapETH","type":"uint256","indexed":false,"internalType":"uint256"},{"name":"sqrtPriceX96","type":"uint160","indexed":false,"internalType":"uint160"},{"name":"name","type":"string","indexed":false,"internalType":"string"},{"name":"symbol","type":"string","indexed":false,"internalType":"string"}],"anonymous":false},{"type":"error","name":"EmptyName","inputs":[]},{"type":"error","name":"EmptySymbol","inputs":[]},{"type":"error","name":"FeeTransferFailed","inputs":[]},{"type":"error","name":"InsufficientBootstrap","inputs":[]},{"type":"error","name":"InvalidFeeSplit","inputs":[]},{"type":"error","name":"InvalidParams","inputs":[]},{"type":"error","name":"InvalidTargetMcap","inputs":[]},{"type":"error","name":"LiquidityAddFailed","inputs":[]},{"type":"error","name":"NameTooLong","inputs":[]},{"type":"error","name":"OwnableInvalidOwner","inputs":[{"name":"owner","type":"address","internalType":"address"}]},{"type":"error","name":"OwnableUnauthorizedAccount","inputs":[{"name":"account","type":"address","internalType":"address"}]},{"type":"error","name":"ProtocolPaused","inputs":[]},{"type":"error","name":"ReentrancyGuardReentrantCall","inputs":[]},{"type":"error","name":"SqrtPriceOverflow","inputs":[]},{"type":"error","name":"SymbolTooLong","inputs":[]},{"type":"error","name":"TokenApprovalFailed","inputs":[]},{"type":"error","name":"ZeroAddressInSplit","inputs":[]},{"type":"error","name":"ZeroBeneficiary","inputs":[]}],"bytecode":{"object":"0x610120346200020757601f6200614c38819003918201601f19168301916001600160401b038311848410176200020b5780849260c094604052833981010312620002075780516001600160a01b0390818116810362000207576020830151828116810362000207576040840151908382168203620002075762000085606086016200021f565b9260808601519585871687036200020757620000a560a08792016200021f565b168015620001ef575f80546001600160a01b03198116831782556040519716907f8be0079c531659141344cd1fd0a4f28419497f9722a3daafe3b4186f6b6457e09080a360017f9b779b17422d0df92223018b32b4d1fa46e071723d6817e2486d003becc55f005560805260a05260c05260e052610100918252615f179182620002358339608051828181610c8501528181610f790152818161132f01528181611384015281816118370152612db2015260a05182818160a30152818161122e0152818161167001528181613b600152614bff015260c05182818161160c015281816116b20152818161173901528181612d6b01528181612f4f01526137d4015260e0518281816108b20152818161091901528181612df90152818161300f01528181613291015281816132f80152614cc40152518181816026015281816112750152612a620152f35b604051631e4fbdf760e01b81525f6004820152602490fd5b5f80fd5b634e487b7160e01b5f52604160045260245ffd5b51906001600160a01b0382168203620002075756fe6080806040526004361015620000cc575b5036156200001c575f80fd5b60018060a01b03807f00000000000000000000000000000000000000000000000000000000000000001633149081156200009f575b50156200005a57005b60405162461bcd60e51b815260206004820152601d60248201527f4f6e6c7920626f6f747374726170206f7220706f6f6c4d616e616765720000006044820152606490fd5b90507f00000000000000000000000000000000000000000000000000000000000000001633145f62000051565b5f905f3560e01c908163027e89f91462003df7575080630e883f8b1462003dd8578063108a03f51462003db45780631c50b8471462003d805780631f0217c11462003963578063239f3af71462003944578063249d39e914620039265780632e73397a146200376c5780633dd9fc7314620036cd578063403b84a714620036a1578063426065ed146200367c57806347377d92146200365b5780635417f4e91462002f30578063607f14021462002f01578063634282af1462002ed15780636afdd8501462002ea5578063715018a61462002e4857806378a895671462002e28578063791b98bc1462002de157806379502c551462002d9a5780637f5a7c7b1462002d53578063834d2c9a1462002ca05780638da5cb5b1462002c77578063902d55a51462002c4e57806392de430e14620012e057806397988dce14620012a4578063a4d0e208146200125d578063dc4c90d31462001216578063e24a88aa1462000649578063eedc76a9146200051c578063f2fde38b146200048d578063f4a9c2db14620004015763fd9f361103620000105734620003fe57602080600319360112620003fa576200027e62003e74565b6200028862004666565b506001600160a01b039081168352600282526040808420905192620002ad8462004095565b82825416845260018360018401541682860152836002840154166040860152836003840154166060860152600483015460808601526005620002f26005850162004236565b60a0870152600884015460c0870152600984015460e0870152600a84015461010087015262000324600b8501620042c1565b61012087015262000338600c8501620042c1565b610140870152604051946200034d86620040b2565b6040519790600d860190895b848410620003e4575050620003e0888860ff60138a8a8f6200037b81620040e2565b855260405190601283015461ffff908181168452818160101c16838501528181841c166040850152818160301c16606085015260401c166080830152620003c282620040e2565b85015201541660408201526101608201526040519182918262003f0e565b0390f35b8254821681529285019291850191860162000359565b5080fd5b80fd5b5034620003fe576020366003190112620003fe57604061010091600435815260046020522060ff60018060a01b039182815416926001820154169060028101546003820154600483015491600d600c85015494015494604051978852602088015260408701526060860152608085015260a0840152818116151560c084015260081c16151560e0820152f35b5034620003fe576020366003190112620003fe57620004ab62003e74565b620004b56200502d565b6001600160a01b0390811690811562000503575f54826001600160601b0360a01b8216175f55167f8be0079c531659141344cd1fd0a4f28419497f9722a3daafe3b4186f6b6457e05f80a380f35b604051631e4fbdf760e01b815260048101849052602490fd5b5034620003fe5760209081600319360112620003fe57906200053d62004666565b506004358252600381526040822090604051916200055b8362004095565b80546001600160a01b039081168452600182810154821685850152600283015482166040860152600383015482166060860152600483015460808601529092906005620005aa81850162004236565b60a0870152600884015460c0870152600984015460e0870152600a840154610100870152620005dc600b8501620042c1565b610120870152620005f0600c8501620042c1565b610140870152604051946200060586620040b2565b6040519790600d860190895b84841062000633575050620003e0888860ff60138a8a8f6200037b81620040e2565b8254821681529285019291850191860162000611565b5034620003fe576200065b3662003e13565b906200066662004708565b80835260046020526040832062000680600584106200403b565b60ff6200069184600a84016200407b565b90549060031b1c1615620011db5760ff620006b084600b84016200407b565b90549060031b1c16620011a357826005620006cc920162004381565b90549060031b1c8015620011705781845260036020526040842090620006f56005830162004236565b9160018060a01b036003820154163314801562001159575b801562001145575b15620010f45780546040516370a0823160e01b8152306004820152934791602090869060249082906001600160a01b03165afa94851562001088578895620010ba575b50604051600160f81b6020820152600960f91b60218201819052602282015260038152620008a290620007db906200079081620040fe565b6200079a620044d6565b93604051620007a9816200411a565b8c81526040519384918a60208401525f60408401525f60608401525f608084015260a08084015260c083019062003ece565b0392620007f1601f199485810183528262004136565b620007fc866200451f565b5262000808856200451f565b5060018060a01b03815116604051906020820152602081526200082b81620040fe565b62000836866200452d565b5262000842856200452d565b506020908101516040516001600160a01b03909116818301529081526200086981620040fe565b62000874856200453e565b5262000880846200453e565b50620008956040519485926020840162004560565b0390810183528262004136565b610e104201421162000d6b5787907f00000000000000000000000000000000000000000000000000000000000000006001600160a01b03163b15620003fa57816200090a916040518093819263dd46508f60e01b835260406004840152604483019062003ece565b42610e100160248301520381837f00000000000000000000000000000000000000000000000000000000000000006001600160a01b03165af18015620010af5762001093575b50506200096060249147620045db565b82546040516370a0823160e01b81523060048201529195919260209184919082906001600160a01b03165afa80156200108857889062001049575b620009a79250620045db565b908315801562000d7f575b508115801562000a15575b5050604080519283526020830193909352918101919091527fb8ace05cf33f60b3bb64c83f4128bfc0fe4c88ff6e0b82bae54adcd532e0c7e09080606081015b0390a360015f8051602062005ec28339815191525580f35b611b58908184029184830414171562000d6b5762000a38612710820484620045db565b8062000c5c575b50612710810415620009bd579390949196959260ff60138701541615155f1462000ba657865b60ff60138801541660ff8216101562000b6d5762000a8781600d890162004381565b905460039190911b1c6001600160a01b031661271062000ac361ffff62000ab28560128d016200461d565b90549060031b1c16828a04620043c0565b04908162000ada575b505060010160ff1662000a65565b885460405163a9059cbb60e01b81526001600160a01b0392831660048201526024810193909352602091839160449183918e91165af1801562000b62579160019160ff9362000b2c575b509162000acc565b62000b529060203d60201162000b5a575b62000b49818362004136565b810190620043d4565b505f62000b24565b503d62000b3d565b6040513d8b823e3d90fd5b509194509194957fb8ace05cf33f60b3bb64c83f4128bfc0fe4c88ff6e0b82bae54adcd532e0c7e09350620009fd905b919293620009bd565b855460019096015460405163a9059cbb60e01b81526001600160a01b0391821660048201526127109096046024870152969793969295919390929091602091869160449183918c91165af190811562000c51577fb8ace05cf33f60b3bb64c83f4128bfc0fe4c88ff6e0b82bae54adcd532e0c7e094620009fd9262000c2d575b5062000b9d565b62000c499060203d60201162000b5a5762000b49818362004136565b505f62000c26565b6040513d89823e3d90fd5b82546040516361d027b360e01b81526001600160a01b03918216929091602090839060049082907f0000000000000000000000000000000000000000000000000000000000000000165afa92831562000d605762000cf7936020938d9162000d2c575b5060405163a9059cbb60e01b81526001600160a01b0390911660048201526024810192909252909283919082908d9082906044820190565b03925af1801562000b62571562000a3f5762000d249060203d60201162000b5a5762000b49818362004136565b505f62000a3f565b62000d519150843d861162000d58575b62000d48818362004136565b8101906200439f565b5f62000cbf565b503d62000d3c565b6040513d8d823e3d90fd5b634e487b7160e01b88526011600452602488fd5b611b58908186029186830414171562000d6b578762000da3612710830487620045db565b8062000f64575b5050612710810415620009b2579260ff6013839693999798949901541615155f1462000eef57855b60ff60138701541660ff8216101562000ede5762000df481600d880162004381565b905460039190911b1c6001600160a01b031661271062000e3061ffff62000e1f8560128c016200461d565b90549060031b1c16828904620043c0565b048062000e46575b505060010160ff1662000dd2565b90918880808085875af162000e5a620045e9565b501562000e995760ff928a7f6ffd6f0443917758f8a8432b680cbfca79bc72a35e3afddc4852eba5097bef3a6020600195604051908152a39162000e38565b60405162461bcd60e51b815260206004820152601a60248201527f57616c6c657420455448207472616e73666572206661696c65640000000000006044820152606490fd5b5092509295909493955b5f620009b2565b9294808080612710819b969a999895980460018060a01b036001870154165af162000f19620045e9565b5062000ee85760405162461bcd60e51b815260206004820152601f60248201527f42656e656669636961727920455448207472616e73666572206661696c6564006044820152606490fd5b6040516361d027b360e01b81526020816004817f00000000000000000000000000000000000000000000000000000000000000006001600160a01b03165afa9081156200103e5783928392839283916200101a575b505af162000fc6620045e9565b501562000fd557875f62000daa565b60405162461bcd60e51b815260206004820152601c60248201527f506c6174666f726d20455448207472616e73666572206661696c6564000000006044820152606490fd5b62001037915060203d60201162000d585762000d48818362004136565b5f62000fb9565b6040513d85823e3d90fd5b506020823d6020116200107f575b81620010666020938362004136565b810103126200107b57620009a791516200099b565b5f80fd5b3d915062001057565b6040513d8a823e3d90fd5b6200109e90620040ce565b620010ab57865f62000950565b8680fd5b6040513d84823e3d90fd5b9094506020813d602011620010eb575b81620010d96020938362004136565b810103126200107b5751935f62000758565b3d9150620010ca565b60405162461bcd60e51b815260206004820152602360248201527f4f6e6c792063726561746f722c2062656e65666963696172792c206f72206f776044820152623732b960e91b6064820152608490fd5b5085546001600160a01b0316331462000715565b5060018101546001600160a01b031633146200070d565b60405162461bcd60e51b815260206004820152600b60248201526a2737903837b9b4ba34b7b760a91b6044820152606490fd5b60405162461bcd60e51b815260206004820152601060248201526f141bdcda5d1a5bdb881c995d1a5c995960821b6044820152606490fd5b60405162461bcd60e51b8152602060048201526013602482015272141bdcda5d1a5bdb881b9bdd081b5a5b9d1959606a1b6044820152606490fd5b5034620003fe5780600319360112620003fe576040517f00000000000000000000000000000000000000000000000000000000000000006001600160a01b03168152602090f35b5034620003fe5780600319360112620003fe576040517f00000000000000000000000000000000000000000000000000000000000000006001600160a01b03168152602090f35b5034620003fe576020366003190112620003fe576020620012c760043562003e2a565b905460405160039290921b1c6001600160a01b03168152f35b50600319602036820112620003fa576001600160401b0360043511620003fa576102009060043536030112620003fe576200131a62004708565b604051635c975abb60e01b81526020816004817f00000000000000000000000000000000000000000000000000000000000000006001600160a01b03165afa908115620010af57829162002c2a575b5062002c1857604051635ee0a92f60e11b81526020816004817f00000000000000000000000000000000000000000000000000000000000000006001600160a01b03165afa908115620010af57829162002be0575b5034811162002a605750345b6020620013dc600480350180620043ee565b90501162002a4e57620013f4600480350180620043ee565b90501562002a3c57600a62001414602460043501600435600401620043ee565b90501162002a2a5762001432602460043501600435600401620043ee565b90501562002a18576001600160a01b036200145260043560440162004423565b161562002a0657670de0b6b3a764000060846004350135108015620029ee575b620029dc5760ff6200148a6101e46004350162004438565b16620028fc575b620014a1600480350180620043ee565b90620014b8602460043501600435600401620043ee565b9190620014ca60446004350162004423565b92620014db60646004350162004423565b926040519586610c888101106001600160401b03610c8889011117620028e857916200152587969594926200153c94610c886200523a8a3960a0610c888a01818152019162004447565b91610c88870183036020610c888901015262004447565b30610c88850160408101919091526001600160a01b03938416606082015291909216608090910152039083f0918215620028dc57604051632933d4e160e11b81526004803560840135908201526b033b2e3c9fd0803ce800000060248201529060208260448173__$225415c8cc7555c9a5cf937efc83c17576$__5af49182156200284c578192620028b6575b50620015d46200463a565b50604051620015e381620040e2565b8181526001600160a01b03858116602083015262800000604080840191909152603c60608401527f0000000000000000000000000000000000000000000000000000000000000000909116608083015260a08220905163313b65df60e11b815262001652600482018462003e8b565b6001600160a01b0385811660a4830152602090829060c490829088907f0000000000000000000000000000000000000000000000000000000000000000165af180156200270d5762002875575b50620016b060446004350162004423565b7f00000000000000000000000000000000000000000000000000000000000000006001600160a01b03163b1562002871576040516306f8b6e760e41b815290620016fe600483018562003e8b565b6001600160a01b0388811660a484015290811660c48301526004356084013560e48301528581166101048301528490829061012490829084907f0000000000000000000000000000000000000000000000000000000000000000165af180156200270d5790849162002859575b5050604051636034dcf360e11b81526004803560840135908201526b033b2e3c9fd0803ce80000006024820152926101e08460448173__$225415c8cc7555c9a5cf937efc83c17576$__5af49283156200284c5781968295839562002808575b5060405195620017db87620040e2565b60a036883760405198620017ef8a620040e2565b60a0368b37848085898c8e5b8d600586106200271857505050505050505050506200181f60446004350162004423565b604051630a9dc98160e11b81529097906020816004817f00000000000000000000000000000000000000000000000000000000000000006001600160a01b03165afa80156200270d578490620026d2575b62001883915060846004350135620043c0565b604051906200189282620040e2565b848252846020830152846040830152846060830152846080830152604051998a6101608101106001600160401b036101608d011117620026be576101608b9a9c9b0160405260018060a01b038b168a5260018060a01b031660208a01526084600435013560408a015260608901526b033b2e3c9fd0803ce800000060808901528660a08901528160c089015260e0880152826101008801526001610120880152826101408801528383526004602052604083209760018060a01b038851166001600160601b0360a01b8a54161789556001890160018060a01b0360208a0151166001600160601b0360a01b825416179055604088015160028a0155606088015160038a0155608088015160048a015560a088015184905b6005821015620019cb5780518b830160050155600190910190602001620019a9565b505089888a60c08201518790885b600581106200268f575050600a82015560e08201518790885b600581106200266057505090600d91600b820155610100830151600c820155019061012081015115159060ff61ff006101408554930151151560081b1692169061ffff191617179055845b60058082101562001a86579060019162001a5882876200436f565b5162001a67575b500162001a3d565b62001a73828c6200436f565b5188526020528760408820558a62001a5f565b505093915062001b4e81969362001aa260446004350162004423565b9062001b4062001ab760646004350162004423565b9162001ac8600480350180620043ee565b909162001ae0602460043501600435600401620043ee565b9590966040519962001af28b62004095565b6001600160a01b039081168b5290811660208b0152166040890152336060890152608088018c905260a08801526004356084013560c08801524260e08801524361010088015236916200449b565b61012085015236916200449b565b610140820152610160600435360360a3190112620003fa5760405162001b7481620040b2565b3660c3600435011215620026135760405162001b9081620040e2565b803661014460043501116200263a5760a460043501905b6101446004350182106200263e575050815236610163600435011215620026135760405162001bd681620040e2565b80366101e460043501116200263a5761014460043501905b6101e46004350182106200261757505060208201526004356101e4013560ff8116900362002613576101e46004350135604082015261016082015260018060a01b038616825260026020526040822060018060a01b038251166001600160601b0360a01b8254161781556001810160018060a01b036020840151166001600160601b0360a01b8254161790556002810160018060a01b036040840151166001600160601b0360a01b8254161790556003810160018060a01b036060840151166001600160601b0360a01b825416179055608082015160048201556005810160a08301519060018060a01b038251166001600160601b0360a01b82541617905560018060a01b0360208201511660068301549062ffffff60a01b604084015160a01b1690606084015160b81b62ffffff60b81b169265ffffffffffff60d01b1617171760068301556007820190608060018060a01b03910151166001600160601b0360a01b82541617905560c0820151600882015560e08201516009820155610100820151600a8201556101208201518051906001600160401b0382116200238957819062001da0600b85015462004286565b601f8111620025dc575b50602090601f8311600114620025695786926200255d575b50508160011b915f199060031b1c191617600b8201555b6101408201518051906001600160401b0382116200238957819062001e02600c85015462004286565b601f811162002526575b50602090601f8311600114620024b3578692620024a7575b50508160011b915f199060031b1c191617600c8201555b6101608201518051845b600581106200248657505060208101518490855b6005811062002453575050604060139260ff92601286015501511660ff198284015416179101558482526003602052604082209060018060a01b038151166001600160601b0360a01b8354161782556001820160018060a01b036020830151166001600160601b0360a01b8254161790556002820160018060a01b036040830151166001600160601b0360a01b8254161790556003820160018060a01b036060830151166001600160601b0360a01b825416179055608081015160048301556005820160a08201519060018060a01b038251166001600160601b0360a01b8254161790556006830160018060a01b0360208301511681549062ffffff60a01b604085015160a01b1690606085015160b81b62ffffff60b81b169265ffffffffffff60d01b1617171790556007830190608060018060a01b03910151166001600160601b0360a01b82541617905560c0810151600883015560e08101516009830155610100810151600a8301556101208101518051906001600160401b0382116200238957819062001fee600b86015462004286565b601f81116200241c575b50602090601f8311600114620023a95786926200239d575b50508160011b915f199060031b1c191617600b8301555b6101408101518051906001600160401b03821162002389576200204e600c85015462004286565b601f811162002346575b50602090601f8311600114620022d157610160939291869183620022c5575b50508160011b915f199060031b1c191617600c8401555b0151908151835b60058110620022a457505060208201518390845b6005811062002271575050601382604092601260ff950155019201511660ff19825416179055600654680100000000000000008110156200225d57806001620020f6920160065562003e2a565b81546001600160a01b0388811660039390931b92831b921b1916179055600154905f198214620022495750948391600160409701600155519051865191825260208201527fa00ce25153d53f49d763906184a78eae3ed06b76c8b5bb8e772a0e20c3fb2fb78660018060a01b03871692a3620021fe6200217b60446004350162004423565b917f4e681450e3a0237a2940b14ff0101c37b44e98770e6a8968ea148e163b6d1692620021ad600480350180620043ee565b90926200221e620021c9602460043501600435600401620043ee565b9690958b519485948b865260846004350135602087015260018060a01b03168d86015260a0606086015260a085019162004447565b828103608084015233976001600160a01b0390811697908b169662004447565b0390a460015f8051602062005ec28339815191525582516001600160a01b0390921682526020820152f35b634e487b7160e01b81526011600452602490fd5b634e487b7160e01b82526041600452602482fd5b909160206200229a60019261ffff8651169085851b60031b9161ffff809116831b921b19161790565b93019101620020a9565b81516001600160a01b0316600d828501015560209091019060010162002095565b015190508b8062002077565b90600c850186526020862091865b601f19851681106200232d57509183916001936101609695601f1981161062002314575b505050811b01600c8401556200208e565b01515f1960f88460031b161c191690558b808062002303565b91926020600181928685015181550194019201620022df565b6200237790600c8601875260208720601f850160051c810191602086106200237e575b601f0160051c019062004467565b8a62002058565b909150819062002369565b634e487b7160e01b85526041600452602485fd5b015190508a8062002010565b9250600b85018652602086209086935b601f198416851062002400576001945083601f19811610620023e7575b505050811b01600b83015562002027565b01515f1960f88460031b161c191690558a8080620023d6565b81810151835560209485019460019093019290910190620023b9565b6200244c90600b8701885260208820601f850160051c810191602086106200237e57601f0160051c019062004467565b8b62001ff8565b909160206200247c60019261ffff8651169085851b60031b9161ffff809116831b921b19161790565b9301910162001e59565b81516001600160a01b0316600d828601015560209091019060010162001e45565b015190508a8062001e24565b9250600c84018652602086209086935b601f19841685106200250a576001945083601f19811610620024f1575b505050811b01600c82015562001e3b565b01515f1960f88460031b161c191690558a8080620024e0565b81810151835560209485019460019093019290910190620024c3565b6200255690600c8601885260208820601f850160051c810191602086106200237e57601f0160051c019062004467565b8b62001e0c565b015190508a8062001dc2565b9250600b84018652602086209086935b601f1984168510620025c0576001945083601f19811610620025a7575b505050811b01600b82015562001dd9565b01515f1960f88460031b161c191690558a808062002596565b8181015183556020948501946001909301929091019062002579565b6200260c90600b8601885260208820601f850160051c810191602086106200237e57601f0160051c019062004467565b8b62001daa565b8280fd5b61ffff8235168235036200263657813581526020918201910162001bee565b8580fd5b8480fd5b81356001600160a01b03811681036200107b5781526020918201910162001ba7565b90916020620026856001928486511515919060ff809160031b9316831b921b19161790565b93019101620019f2565b90916020620026b46001928486511515919060ff809160031b9316831b921b19161790565b93019101620019d9565b634e487b7160e01b5f52604160045260245ffd5b506020813d60201162002704575b81620026ef6020938362004136565b810103126200107b5762001883905162001870565b3d9150620026e0565b6040513d86823e3d90fd5b60019686938a918a90866200280257508c5b6001600160801b03620027836200274289856200436f565b5194838b886200277b8d620027746200276b826200276460029e8f0b620047f1565b956200436f565b518c0b620047f1565b936200436f565b519362004b3f565b16620027a0575b50505050505050505001859085898c8e620017fb565b8a98620027f298620027eb95620027dc8a8097620027d282620027c881620027e49b6200436f565b51830b956200436f565b51900b936200436f565b519262004bd5565b926200436f565b526200436f565b528589828e8d885f89816200278a565b6200272a565b9197509350620028379194506101e03d6101e01162002844575b6200282e818362004136565b810190620041bc565b9491969094935f620017cb565b503d62002822565b50604051903d90823e3d90fd5b6200286490620040ce565b6200261357825f6200176b565b8380fd5b6020813d602011620028ad575b81620028916020938362004136565b810103126200287157620028a59062004158565b505f6200169f565b3d915062002882565b620028d491925060203d60201162000d585762000d48818362004136565b905f620015c9565b604051903d90823e3d90fd5b634e487b7160e01b89526041600452602489fd5b90600560ff620029126101e46004350162004438565b1611620029ca5780805b60ff6200292f6101e46004350162004438565b1660ff84161015620029bb576001600160a01b03620029616200295b60ff861660043560a4016200436f565b62004423565b1615620029a9576200297d60ff8416610144600435016200436f565b3561ffff8116810362002613576200299f60ff9261ffff600193169062004391565b930116916200291c565b604051631d252bdd60e11b8152600490fd5b61271091939250031562001491575b604051630601f69760e01b8152600490fd5b60405163091f8ae360e41b8152600490fd5b50678ac7230489e80000608460043501351162001472565b60405163776cceeb60e01b8152600490fd5b604051630cc613fb60e11b8152600490fd5b604051631124f78b60e01b8152600490fd5b604051632ef1310560e01b8152600490fd5b60405163680b6caf60e01b8152600490fd5b7f00000000000000000000000000000000000000000000000000000000000000006001600160a01b03168015158062002b88575b1562002b765760405163560c294f60e11b815233600482015260248101839052906020908290604490829087905af19081156200103e57839162002b52575b501562002b0d57806040519081527f39fa6ab0e8b71721866adfce9f25ec41f14a47d2ee9e4d7a2aa76dba959085d160203392a2620013ca565b60405162461bcd60e51b815260206004820152601860248201527f426f6f7473747261702072657175657374206661696c656400000000000000006044820152606490fd5b62002b6f915060203d60201162000b5a5762000b49818362004136565b5f62002ad3565b604051632e28917b60e11b8152600490fd5b506040516366e305fd60e01b8152336004820152602081602481855afa9081156200270d57849162002bbc575b5062002a94565b62002bd9915060203d60201162000b5a5762000b49818362004136565b5f62002bb5565b90506020813d60201162002c0f575b8162002bfe6020938362004136565b810103126200107b57515f620013be565b3d915062002bef565b604051634427925560e01b8152600490fd5b62002c47915060203d60201162000b5a5762000b49818362004136565b5f62001369565b5034620003fe5780600319360112620003fe5760206040516b033b2e3c9fd0803ce80000008152f35b5034620003fe5780600319360112620003fe57546040516001600160a01b039091168152602090f35b5034620003fe576040366003190112620003fe576001600160a01b0390602435828116908190036200107b5760043582526020809360048252604084205416916024604051809481936370a0823160e01b835260048301525afa918215620028dc579162002d20575b506a7c13bc4b2c133c560000006040519111158152f35b90508181813d831162002d4b575b62002d3a818362004136565b810103126200107b57515f62002d09565b503d62002d2e565b5034620003fe5780600319360112620003fe576040517f00000000000000000000000000000000000000000000000000000000000000006001600160a01b03168152602090f35b5034620003fe5780600319360112620003fe576040517f00000000000000000000000000000000000000000000000000000000000000006001600160a01b03168152602090f35b5034620003fe5780600319360112620003fe576040517f00000000000000000000000000000000000000000000000000000000000000006001600160a01b03168152602090f35b5034620003fe5780600319360112620003fe576020600654604051908152f35b5034620003fe5780600319360112620003fe5762002e656200502d565b5f80546001600160a01b0319811682556001600160a01b03167f8be0079c531659141344cd1fd0a4f28419497f9722a3daafe3b4186f6b6457e08280a380f35b5034620003fe5780600319360112620003fe5760206040516e22d473030f116ddee9f6b43ac78ba38152f35b5034620003fe576020366003190112620003fe5760043590600654821015620003fe576020620012c78362003e2a565b5034620003fe576020366003190112620003fe5760056040602092600435815260048452200154604051908152f35b5034620003fe5762002f423662003e13565b9062002f4d62004708565b7f00000000000000000000000000000000000000000000000000000000000000006001600160a01b031633036200362a5780835260046020526040832062002f98600584106200403b565b60ff62002fa984600a84016200407b565b90549060031b1c1615620035f85760ff62002fc884600b84016200407b565b90549060031b1c16620035c15762002fe4836005830162004381565b90549060031b1c80156200358957604051631efeed3360e01b815260048101829052906020826024817f00000000000000000000000000000000000000000000000000000000000000006001600160a01b03165afa9182156200357e57869262003533575b506001600160801b03821615620034ff57808652600560205260408620548015620034c75786526003602052620030866005604088200162004236565b6020818101516040516370a0823160e01b815230600482015247966001600160a01b03909216959193909283602481895afa928315620034bc578a9362003482575b50604051600160f81b6020820152600360f81b6021820152600960f91b60228201819052602382015260048152906200310182620040fe565b604051926200311084620040e2565b600484528b5f5b608081106200346d575091620032819391620031756001600160801b03946040519062003144826200411a565b81526040519586938c60208601521660408401525f60608401525f608084015260a08084015260c083019062003ece565b03926200318b601f199485810183528262004136565b62003196866200451f565b52620031a2856200451f565b50604051620031f28e620031b6836200411a565b808352620031e56040519384928d6020850152806040850152606084015260808084015260a083019062003ece565b0385810183528262004136565b620031fd866200452d565b5262003209856200452d565b5060018060a01b03815116604051906020820152602081526200322c81620040fe565b62003237866200453e565b5262003243856200453e565b506020908101516040516001600160a01b03909116818301529081526200326a81620040fe565b62003275856200454f565b5262000880846200454f565b610e1042014211620034595788907f00000000000000000000000000000000000000000000000000000000000000006001600160a01b03163b15620003fa5781620032e9916040518093819263dd46508f60e01b835260406004840152604483019062003ece565b42610e100160248301520381837f00000000000000000000000000000000000000000000000000000000000000006001600160a01b03165af18015620010af576200343d575b505060206200334160249647620045db565b94604051968780926370a0823160e01b82523060048301525afa8015620010885787958991620033fb575b50620033c57f13aeb21e5bd54eedf09354d5f947f00757e0990b4d8e61b95a9136a674bc5fc396600b620033aa620009fd9695620033dc95620045db565b94600c8101620033bc8a825462004391565b9055016200407b565b819291549060031b9060ff6001831b921b19161790565b9055604051938493846040919493926060820195825260208201520152565b955050906020853d60201162003434575b816200341b6020938362004136565b810103126200107b57935186949190620033c56200336c565b3d91506200340c565b6200344890620040ce565b6200345557875f6200332f565b8780fd5b634e487b7160e01b89526011600452602489fd5b602091506060828288010152018c9062003117565b9092506020813d602011620034b3575b81620034a16020938362004136565b810103126200107b5751915f620030c8565b3d915062003492565b6040513d8c823e3d90fd5b60405162461bcd60e51b815260206004820152601060248201526f141bdbdb1259081b9bdd08199bdd5b9960821b6044820152606490fd5b60405162461bcd60e51b815260206004820152600c60248201526b4e6f206c697175696469747960a01b6044820152606490fd5b9091506020813d60201162003575575b81620035526020938362004136565b810103126200263657516001600160801b03811681036200263657905f62003049565b3d915062003543565b6040513d88823e3d90fd5b60405162461bcd60e51b815260206004820152601060248201526f125b9d985b1a59081d1bdad95b88125160821b6044820152606490fd5b60405162461bcd60e51b815260206004820152600f60248201526e105b1c9958591e481c995d1a5c9959608a1b6044820152606490fd5b60405162461bcd60e51b815260206004820152600a602482015269139bdd081b5a5b9d195960b21b6044820152606490fd5b60405162461bcd60e51b81526020600482015260096024820152684f6e6c7920686f6f6b60b81b6044820152606490fd5b5034620003fe5780600319360112620003fe576020604051620d89b3198152f35b5034620003fe5780600319360112620003fe576020604051670de0b6b3a76400008152f35b5034620003fe576020366003190112620003fe5760406020916004358152600583522054604051908152f35b5034620003fe576020366003190112620003fe57604051632933d4e160e11b815260048035908201526b033b2e3c9fd0803ce8000000602482015260208160448173__$225415c8cc7555c9a5cf937efc83c17576$__5af4908115620010af57602092916200374a575b506040516001600160a01b039091168152f35b620037659150823d841162000d585762000d48818362004136565b5f62003737565b50346200107b5760203660031901126200107b576004355f81815260036020526040902080546001600160a01b039190821615620038ee578160038201541633148015620038e1575b15620038a45760090154603c8101809111620038905742106200384b577f00000000000000000000000000000000000000000000000000000000000000001690813b156200107b575f9160448392604051948593849263f7b9568b60e01b845260048401528160248401525af18015620038405762003832575080f35b6200383e9150620040ce565b005b6040513d5f823e3d90fd5b60405162461bcd60e51b815260206004820152601d60248201527f46697273742d6275792077696e646f77207374696c6c206163746976650000006044820152606490fd5b634e487b7160e01b5f52601160045260245ffd5b60405162461bcd60e51b815260206004820152601560248201527427b7363c9031b932b0ba37b91037b91037bbb732b960591b6044820152606490fd5b50815f54163314620037b5565b60405162461bcd60e51b815260206004820152601060248201526f13185d5b98da081b9bdd08199bdd5b9960821b6044820152606490fd5b346200107b575f3660031901126200107b5760206040516127108152f35b346200107b575f3660031901126200107b576020604051620d89b48152f35b346200107b57620039743662003e13565b6200397e62004708565b815f52600460205260405f209162003999600583106200403b565b600a830160ff620039ab84836200407b565b90549060031b1c1662003d4a57600284015493600481015460405195636034dcf360e11b8752600487015260248601526101e094858160448173__$225415c8cc7555c9a5cf937efc83c17576$__5af495861562003840575f915f915f9862003d20575b5050845f52600360205260405f20966040519162003a2d8362004095565b88546001600160a01b03908116845260018a01548116602085015260028a01548116604085015260038a01541660608401526004890154608084015262003a7760058a0162004236565b60a0840152600889015460c0840152600989015460e0840152600a89015461010084015262003aa9600b8a01620042c1565b61012084015262003abd600c8a01620042c1565b61014084015260405162003ad181620040b2565b604051600d8b015f825b6005821062003cff5750505060136200277b999a9b8262003afe60ff94620040e2565b8452604051601282015461ffff908181168352818160101c166020840152818160201c166040840152818160301c16606084015260401c16608082015262003b4681620040e2565b6020850152015416604082015261016084015262003b85887f000000000000000000000000000000000000000000000000000000000000000062004739565b5050506001600160801b0362003bd162003bae62003ba48d896200436f565b5160020b620047f1565b928c62003bc062003ba482886200436f565b600c8b019586549d8e938a6200436f565b161562003ca6578960409762003c5782600562003c4f7f1a9fa90152f4ebe84c36b60eb33113b6a1d61f26fd7b548ba9f97077f78a72af9d62003c869b8a62003c719a620027dc879e62003c448962003c39620033c59f60a083955f8593550151986200436f565b5160020b946200436f565b5160020b936200436f565b9a0162004381565b81549060031b908a821b915f19901b19161790556200407b565b9055835f52600560205286855f20556200436f565b5182519182526020820152a360015f8051602062005ec283398151915255005b60405162461bcd60e51b815260206004820152602b60248201527f506f736974696f6e206c6971756964697479207374696c6c203020617420637560448201526a7272656e7420707269636560a81b6064820152608490fd5b82546001600160a01b03168152600192830192919091019060200162003adb565b9150915062003d3f929650803d1062002844576200282e818362004136565b959190878062003a0f565b60405162461bcd60e51b815260206004820152600e60248201526d105b1c9958591e481b5a5b9d195960921b6044820152606490fd5b346200107b5760203660031901126200107b576004355f526004602052602060ff600d60405f200154166040519015158152f35b346200107b575f3660031901126200107b576020604051678ac7230489e800008152f35b346200107b575f3660031901126200107b576020600154604051908152f35b346200107b575f3660031901126200107b57806105dc60209252f35b60409060031901126200107b576004359060243590565b60065481101562003e605760065f527ff652222313e28459528d920b65115c16c04f3efc82aaedc97be59f3f377c0d3f01905f90565b634e487b7160e01b5f52603260045260245ffd5b600435906001600160a01b03821682036200107b57565b80516001600160a01b03908116835260208083015182169084015260408083015162ffffff169084015260608083015160020b9084015260809182015116910152565b91908251928382525f5b84811062003ef9575050825f602080949584010152601f8019910116010190565b60208183018101518483018201520162003ed8565b602080825260018060a01b0380845116828401528082850151166040840152806040850151166060840152806060850151166080840152608084015160a084015262003f6360a085015160c085019062003e8b565b60c084015191610160928385015260e08501516101808501526101008501516101a08501526101208501519262003fc762003fae61034095866101c089015261036088019062003ece565b610140880151878203601f19016101e089015262003ece565b95015191610200850183515f915b846005841062004024579350505050820151906102a085015f905b600582106200400a57505050506040015160ff1691015290565b828060019261ffff87511681520194019101909262003ff0565b806001928685511681520192019201919062003fd5565b156200404357565b60405162461bcd60e51b815260206004820152601060248201526f24b73b30b634b2103837b9b4ba34b7b760811b6044820152606490fd5b919091600583101562003e6057601f908360051c01921690565b61018081019081106001600160401b03821117620026be57604052565b606081019081106001600160401b03821117620026be57604052565b6001600160401b038111620026be57604052565b60a081019081106001600160401b03821117620026be57604052565b604081019081106001600160401b03821117620026be57604052565b602081019081106001600160401b03821117620026be57604052565b90601f801991011681019081106001600160401b03821117620026be57604052565b51908160020b82036200107b57565b9080601f830112156200107b57604051916200418383620040e2565b829060a081019283116200107b57905b828210620041a15750505090565b60208091620041b08462004158565b81520191019062004193565b90916101e09182818503126200107b57620041d8848262004167565b93620041e88160a0840162004167565b938161015f840112156200107b57604051926200420584620040e2565b839181019283116200107b5761014001905b828210620042255750505090565b815181526020918201910162004217565b906040516200424581620040e2565b60808193600260018060a01b03918281541685526001810154838116602087015262ffffff8160a01c16604087015260b81c820b6060860152015416910152565b90600182811c92168015620042b6575b6020831014620042a257565b634e487b7160e01b5f52602260045260245ffd5b91607f169162004296565b9060405191825f8254620042d58162004286565b908184526020946001916001811690815f146200434b575060011462004309575b505050620043079250038362004136565b565b5f90815285812095935091905b818310620043325750506200430793508201015f8080620042f6565b8554888401850152948501948794509183019162004316565b925050506200430794925060ff191682840152151560051b8201015f8080620042f6565b90600581101562003e605760051b0190565b600582101562003e605701905f90565b919082018092116200389057565b908160209103126200107b57516001600160a01b03811681036200107b5790565b818102929181159184041417156200389057565b908160209103126200107b575180151581036200107b5790565b903590601e19813603018212156200107b57018035906001600160401b0382116200107b576020019181360383136200107b57565b356001600160a01b03811681036200107b5790565b3560ff811681036200107b5790565b908060209392818452848401375f828201840152601f01601f1916010190565b81811062004473575050565b5f815560010162004467565b6001600160401b038111620026be57601f01601f191660200190565b929192620044a9826200447f565b91620044b9604051938462004136565b8294818452818301116200107b578281602093845f960137010152565b60405190608082018281106001600160401b03821117620026be576040526003825281905f5b60608082101562004518579060209182828701015201620044fc565b5050909150565b80511562003e605760200190565b80516001101562003e605760400190565b80516002101562003e605760600190565b80516003101562003e605760800190565b90620045759060408352604083019062003ece565b90602090818184039101528251908183528083019281808460051b8301019501935f915b848310620045aa5750505050505090565b9091929394958480620045ca600193601f198682030187528a5162003ece565b980193019301919493929062004599565b919082039182116200389057565b3d1562004618573d90620045fd826200447f565b916200460d604051938462004136565b82523d5f602084013e565b606090565b919091600583101562003e6057601e908360041c019260011b1690565b604051906200464982620040e2565b5f6080838281528260208201528260408201528260608201520152565b604090815191620046778362004095565b610160835f81525f60208201525f838201525f60608201525f60808201526200469f6200463a565b60a08201525f60c08201525f60e08201525f610100820152606061012082015260606101408201525f835193620046d685620040b2565b8051620046e381620040e2565b60a036823785528051620046f781620040e2565b60a036823760208601528401520152565b5f8051602062005ec28339815191526002815414620047275760029055565b604051633ee5aeb560e01b8152600490fd5b60206024939260405182810191825260066040820152604081526200475e81620040b2565b519020604051631e2eaeaf60e01b81526004810191909152936001600160a01b0392859190829085165afa92831562003840575f93620047b7575b508216918060a01c60020b9162ffffff808360b81c169260d01c1690565b9092506020813d602011620047e8575b81620047d66020938362004136565b810103126200107b5751915f62004799565b3d9150620047c7565b60020b908160ff1d82810118620d89e8811162004b2c5763ffffffff9192600182167001fffcb933bd6fad37aa2d162d1a59400102600160801b18916002811662004b0f575b6004811662004af2575b6008811662004ad5575b6010811662004ab8575b6020811662004a9b575b6040811662004a7e575b60809081811662004a62575b610100811662004a46575b610200811662004a2a575b610400811662004a0e575b6108008116620049f2575b6110008116620049d6575b6120008116620049ba575b61400081166200499e575b618000811662004982575b62010000811662004966575b6202000081166200494b575b62040000811662004930575b620800001662004915575b505f126200490c575b0160201c90565b5f190462004905565b6b048a170391f7dc42444e8fa25f929302901c9190620048fc565b6d2216e584f5fa1ea926041bedfe98909302811c92620048f1565b926e5d6af8dedb81196699c329225ee60402811c92620048e5565b926f09aa508b5b7a84e1c677de54f3e99bc902811c92620048d9565b926f31be135f97d08fd981231505542fcfa602811c92620048cd565b926f70d869a156d2a1b890bb3df62baf32f702811c92620048c2565b926fa9f746462d870fdf8a65dc1f90e061e502811c92620048b7565b926fd097f3bdfd2022b8845ad8f792aa582502811c92620048ac565b926fe7159475a2c29b7443b29c7fa6e889d902811c92620048a1565b926ff3392b0822b70005940c7a398e4b70f302811c9262004896565b926ff987a7253ac413176f2b074cf7815e5402811c926200488b565b926ffcbe86c7900a88aedcffc83b479aa3a402811c9262004880565b926ffe5dee046a99a2a811c461f1969c305302811c9262004875565b916fff2ea16466c96a3843ec78b326b528610260801c9162004869565b916fff973b41fa98c081472e6896dfb254c00260801c916200485f565b916fffcb9843d60f6159c9db58835c9266440260801c9162004855565b916fffe5caca7e10e4e61c3624eaa0941cd00260801c916200484b565b916ffff2e50f5f656932ef12357cf3c7fdcc0260801c9162004841565b916ffff97272373d413259a46990580e213a0260801c9162004837565b826345c3193d60e11b5f5260045260245ffd5b9093906001600160a01b038381168187161162004bcc575b81811690868116821162004b77575050505062004b749262005091565b90565b84929495939516115f1462004bbe57829162004b999162004ba0959462005091565b9362005059565b6001600160801b03818116908316101562004bb9575090565b905090565b91505062004b749262005059565b94929462004b57565b6020808201805160a0842096975f976001600160a01b0392831697949691939192919062004c24907f000000000000000000000000000000000000000000000000000000000000000062004739565b5050509562004c3384620047f1565b62004c568c876001600160801b039a8b9462004c4f8c620047f1565b9162004b3f565b1696871562004ff05760409b8c519863095ea7b360e01b8a526e22d473030f116ddee9f6b43ac78ba39b8c9a60049d8e8201528360248201528c816044815f865af1801562004fe55762004fc3575b508a3b156200107b578e51906387517c4560e01b82528d8201528080887f0000000000000000000000000000000000000000000000000000000000000000169c8d60248301528960448301526064820165ffffffffffff90525a925f6084928195f1801562004fb957908f9796959493929162004f9b575b508593928c928f9289519c8d86600160f91b9101528d600960f91b90816021820152602201528d6003815262004d5390620040fe565b62004d5d620044d6565b9a80519562004d6c876200411a565b8652519b8c96870162004d80908962003e8b565b60020b60c087015260020b60e0860152610100850152818b166101208501521661014083015230610160830152610180808301526101a0820162004dc49162003ece565b0395601f1996878101825262004ddb908262004136565b62004de6866200451f565b5262004df2856200451f565b5051168b51908982015288815262004e0a81620040fe565b62004e15846200452d565b5262004e21836200452d565b5051168951908782015286815262004e3981620040fe565b62004e44826200453e565b5262004e50816200453e565b50885193849162004e649188840162004560565b03908101835262004e76908362004136565b42610e10019182421162004f8857833b15620010ab57869162004eb591895180958194829363dd46508f60e01b84528d8c850152604484019062003ece565b9060248301520391865af1801562004f7e5784939291869162004f5f575b50508190865193848092631d5e528f60e21b82525afa94851562004f565750839462004f20575b50505f19830192831162004f0d57505090565b634e487b7160e01b825260119052602490fd5b9080929450813d831162004f4e575b62004f3b818362004136565b810103126200107b5751915f8062004efa565b503d62004f2f565b513d85823e3d90fd5b62004f6e9192939450620040ce565b6200287157908291845f62004ed3565b86513d87823e3d90fd5b634e487b7160e01b875260118652602487fd5b8c929e509262004fad879594620040ce565b5f9e9250929362004d1d565b8f513d5f823e3d90fd5b62004fdd908d803d1062000b5a5762000b49818362004136565b505f62004ca5565b508f513d5f823e3d90fd5b60405162461bcd60e51b8152600481018a9052601560248201527404c6971756964697479206d757374206265203e203605c1b6044820152606490fd5b5f546001600160a01b031633036200504157565b60405163118cdaa760e01b8152336004820152602490fd5b62004b7492620050849290916001600160a01b0391828116838316116200508a575b031690620050d4565b62005215565b906200507b565b62004b7492620050849290916001600160a01b039081831682821611620050cd575b620050c382841683831662005158565b92031691620051a0565b91620050b3565b90606082901b90600160601b5f19818509938380861095039480860395868511156200107b571462005150579082910981805f0316809204600280826003021880830282030280830282030280830282030280830282030280830282030280920290030293600183805f03040190848311900302920304170290565b505091500490565b81810291905f19828209918380841093039183830393600160601b93858511156200107b571462005196570990828211900360a01b910360601c1790565b5050505060601c90565b91818302915f19818509938380861095039480860395868511156200107b571462005150579082910981805f0316809204600280826003021880830282030280830282030280830282030280830282030280830282030280920290030293600183805f03040190848311900302920304170290565b906001600160801b0382168092036200522a57565b6393dafdf160e01b5f5260045ffdfe6040610100815234620003f65762000c88803803806200001f81620003fa565b928339810160a082820312620003f65781516001600160401b0390818111620003f657826200005091850162000420565b906020928385015190828211620003f6576200006e91860162000420565b936200007c86820162000490565b92620000996080620000916060850162000490565b930162000490565b928151818111620002ff576003908154906001948583811c93168015620003eb575b8a841014620003d7578190601f9384811162000384575b508a908483116001146200031f575f9262000313575b50505f1982851b1c191690851b1782555b8851928311620002ff5760049889548581811c91168015620002f4575b8a821014620002e15782811162000299575b508891841160011462000232579383949184925f9562000226575b50501b925f19911b1c19161785555b608083905260a05260e0524260c0526001600160a01b031691821562000210576002546b033b2e3c9fd0803ce800000091828201809211620001fd57506002555f8381528083528481208054830190558451918252917fddf252ad1be2c89b69c2b068fc378daa952ba7f163c4a11628f55a4df523b3ef91a3516107e29081620004a68239608051816102c9015260a05181610385015260c0518161011d015260e051816103420152f35b601190634e487b7160e01b5f525260245ffd5b6024905f85519163ec442f0560e01b8352820152fd5b015193505f8062000143565b9190601f198416928a5f52848a5f20945f5b8c8983831062000281575050501062000267575b50505050811b01855562000152565b01519060f8845f19921b161c191690555f80808062000258565b86860151895590970196948501948893500162000244565b8a5f52895f208380870160051c8201928c8810620002d7575b0160051c019086905b828110620002cb57505062000128565b5f8155018690620002bb565b92508192620002b2565b60228b634e487b7160e01b5f525260245ffd5b90607f169062000116565b634e487b7160e01b5f52604160045260245ffd5b015190505f80620000e8565b5f8681528c8120899550929190601f198516908e5b8282106200036c575050841162000354575b505050811b018255620000f9565b01515f1983871b60f8161c191690555f808062000346565b8385015186558b979095019493840193018e62000334565b909150845f528a5f208480850160051c8201928d8610620003cd575b918991869594930160051c01915b828110620003be575050620000d2565b5f8155859450899101620003ae565b92508192620003a0565b634e487b7160e01b5f52602260045260245ffd5b92607f1692620000bb565b5f80fd5b6040519190601f01601f191682016001600160401b03811183821017620002ff57604052565b919080601f84011215620003f65782516001600160401b038111620002ff5760209062000456601f8201601f19168301620003fa565b92818452828287010111620003f6575f5b8181106200047c5750825f9394955001015290565b858101830151848201840152820162000467565b51906001600160a01b0382168203620003f65756fe6080604090808252600480361015610015575f80fd5b5f3560e01c91826306fdde031461058757508163095ea7b3146104df57816318160ddd146104c157816323b872dd146103cf578163313ce567146103b457816338af3eed146103715781633f6dfdbc1461032e57816370a08231146102f85781637f5a7c7b146102b5578163902d55a51461028f57816395d89b411461017057508063a9059cbb14610140578063cf09e0d0146101065763dd62ed3e146100ba575f80fd5b346101025780600319360112610102576020906100d56106a6565b6100dd6106bc565b9060018060a01b038091165f5260018452825f2091165f528252805f20549051908152f35b5f80fd5b5034610102575f36600319011261010257602090517f00000000000000000000000000000000000000000000000000000000000000008152f35b503461010257806003193601126101025760209061016961015f6106a6565b60243590336106d2565b5160018152f35b8234610102575f366003190112610102578051905f835460018160011c9060018316928315610285575b6020938484108114610272578388529081156102565750600114610202575b505050829003601f01601f191682019267ffffffffffffffff8411838510176101ef57508291826101eb92528261065f565b0390f35b604190634e487b7160e01b5f525260245ffd5b5f878152929350837f8a35acfbc15ff81a39ae7d344fd709f28e8600b4aa8c65c6b64bfe7fe36bd19b5b83851061024257505050508301018480806101b9565b80548886018301529301928490820161022c565b60ff1916878501525050151560051b84010190508480806101b9565b602289634e487b7160e01b5f525260245ffd5b91607f169161019a565b8234610102575f36600319011261010257602090516b033b2e3c9fd0803ce80000008152f35b8234610102575f36600319011261010257517f00000000000000000000000000000000000000000000000000000000000000006001600160a01b03168152602090f35b8234610102576020366003190112610102576020906001600160a01b0361031d6106a6565b165f525f8252805f20549051908152f35b8234610102575f36600319011261010257517f00000000000000000000000000000000000000000000000000000000000000006001600160a01b03168152602090f35b8234610102575f36600319011261010257517f00000000000000000000000000000000000000000000000000000000000000006001600160a01b03168152602090f35b8234610102575f366003190112610102576020905160128152f35b905034610102576060366003190112610102576103ea6106a6565b6103f26106bc565b906044359260018060a01b038216805f526001602052855f20335f52602052855f2054915f19831061042d575b6020876101698888886106d2565b85831061049557811561047f57331561046957505f9081526001602090815286822033835281529086902091859003909155829061016961041f565b6024905f885191634a1406b160e11b8352820152fd5b6024905f88519163e602df0560e01b8352820152fd5b8651637dc7a0d960e11b8152339181019182526020820193909352604081018690528291506060010390fd5b8234610102575f366003190112610102576020906002549051908152f35b82346101025780600319360112610102576104f86106a6565b602435903315610571576001600160a01b031690811561055b5760209350335f5260018452825f20825f52845280835f205582519081527f8c5be1e5ebec7d5bd14f71427d1e84f3dd0314c0f7b2291e5b200ac8c7c3b925843392a35160018152f35b8251634a1406b160e11b81525f81860152602490fd5b825163e602df0560e01b81525f81860152602490fd5b8334610102575f366003190112610102575f60035460018160011c9060018316928315610655575b60209384841081146102725783885290811561025657506001146105ff57505050829003601f01601f191682019267ffffffffffffffff8411838510176101ef57508291826101eb92528261065f565b60035f908152929350837fc2575a0e9e593c00f959f8c92f12db2869c3395a3b0502d05e2516446f71f85b5b83851061064157505050508301018480806101b9565b80548886018301529301928490820161062b565b91607f16916105af565b602080825282518183018190529093925f5b82811061069257505060409293505f838284010152601f8019910116010190565b818101860151848201604001528501610671565b600435906001600160a01b038216820361010257565b602435906001600160a01b038216820361010257565b916001600160a01b03808416928315610794571692831561077c57825f525f60205260405f20549082821061074a5750817fddf252ad1be2c89b69c2b068fc378daa952ba7f163c4a11628f55a4df523b3ef92602092855f525f84520360405f2055845f5260405f20818154019055604051908152a3565b60405163391434e360e21b81526001600160a01b03919091166004820152602481019190915260448101829052606490fd5b60405163ec442f0560e01b81525f6004820152602490fd5b604051634b637e8f60e11b81525f6004820152602490fdfea2646970667358221220bc4b42940df1ec9a5d9d6bd9ce2225ceb2cad3b2414eb924cbb6547e45e6cd5564736f6c634300081800339b779b17422d0df92223018b32b4d1fa46e071723d6817e2486d003becc55f00a2646970667358221220b27790f4a386cdb0efe1b8f9e083d69dfb00d9b7216d8b0f26a269bdd5760c7464736f6c63430008180033","linkReferences":{"src/libraries/PriceMath.sol":{"PriceMath":[{"start":6105,"length":20},{"start":6615,"length":20},{"start":14661,"length":20},{"start":15387,"length":20}]}}},"methodIdentifiers":{"BPS()":"249d39e9","MAX_DEV_SUPPLY_BPS()":"027e89f9","MAX_TARGET_MCAP()":"108a03f5","MIN_TARGET_MCAP()":"426065ed","PERMIT2()":"6afdd850","TICK_LOWER()":"47377d92","TICK_UPPER()":"239f3af7","TOTAL_SUPPLY()":"902d55a5","allTokens(uint256)":"634282af","bootstrapETH()":"a4d0e208","checkDevCap(bytes32,address)":"834d2c9a","clearDevOverride(bytes32)":"2e73397a","collectFeesFromPosition(bytes32,uint256)":"e24a88aa","config()":"79502c55","createLaunch((string,string,address,address,uint256,(address[5],uint16[5],uint8)))":"92de430e","getTokenAtIndex(uint256)":"97988dce","getTokenCount()":"78a89567","hook()":"7f5a7c7b","launchByPoolId(bytes32)":"eedc76a9","launchByToken(address)":"fd9f3611","mintNextPosition(bytes32,uint256)":"1f0217c1","owner()":"8da5cb5b","poolActivated(bytes32)":"1c50b847","poolManager()":"dc4c90d3","poolStates(bytes32)":"f4a9c2db","positionManager()":"791b98bc","positionTokenId(bytes32)":"607f1402","previewSqrtPrice(uint256)":"3dd9fc73","renounceOwnership()":"715018a6","retireOldPosition(bytes32,uint256)":"5417f4e9","tokenIdToPoolId(uint256)":"403b84a7","totalLaunches()":"0e883f8b","transferOwnership(address)":"f2fde38b"},"id":83}