{"abi":[{"type":"constructor","inputs":[{"name":"_poolManager","type":"address","internalType":"contract IPoolManager"},{"name":"_config","type":"address","internalType":"contract ClawclickConfig"}],"stateMutability":"nonpayable"},{"type":"receive","stateMutability":"payable"},{"type":"function","name":"BASE_LIMIT_BPS","inputs":[],"outputs":[{"name":"","type":"uint256","internalType":"uint256"}],"stateMutability":"view"},{"type":"function","name":"BENEFICIARY_SHARE_BPS","inputs":[],"outputs":[{"name":"","type":"uint256","internalType":"uint256"}],"stateMutability":"view"},{"type":"function","name":"BPS","inputs":[],"outputs":[{"name":"","type":"uint256","internalType":"uint256"}],"stateMutability":"view"},{"type":"function","name":"ETH","inputs":[],"outputs":[{"name":"","type":"address","internalType":"address"}],"stateMutability":"view"},{"type":"function","name":"GRADUATED_POOL_FEE","inputs":[],"outputs":[{"name":"","type":"uint24","internalType":"uint24"}],"stateMutability":"view"},{"type":"function","name":"GRADUATION_EPOCH","inputs":[],"outputs":[{"name":"","type":"uint256","internalType":"uint256"}],"stateMutability":"view"},{"type":"function","name":"MIN_START_MCAP","inputs":[],"outputs":[{"name":"","type":"uint256","internalType":"uint256"}],"stateMutability":"view"},{"type":"function","name":"MIN_SWAP_AMOUNT","inputs":[],"outputs":[{"name":"","type":"uint256","internalType":"uint256"}],"stateMutability":"view"},{"type":"function","name":"PLATFORM_SHARE_BPS","inputs":[],"outputs":[{"name":"","type":"uint256","internalType":"uint256"}],"stateMutability":"view"},{"type":"function","name":"TAX_FLOOR_BPS","inputs":[],"outputs":[{"name":"","type":"uint256","internalType":"uint256"}],"stateMutability":"view"},{"type":"function","name":"TOTAL_SUPPLY","inputs":[],"outputs":[{"name":"","type":"uint256","internalType":"uint256"}],"stateMutability":"view"},{"type":"function","name":"activationInProgress","inputs":[{"name":"","type":"bytes32","internalType":"PoolId"}],"outputs":[{"name":"","type":"bool","internalType":"bool"}],"stateMutability":"view"},{"type":"function","name":"afterAddLiquidity","inputs":[{"name":"","type":"address","internalType":"address"},{"name":"","type":"tuple","internalType":"struct PoolKey","components":[{"name":"currency0","type":"address","internalType":"Currency"},{"name":"currency1","type":"address","internalType":"Currency"},{"name":"fee","type":"uint24","internalType":"uint24"},{"name":"tickSpacing","type":"int24","internalType":"int24"},{"name":"hooks","type":"address","internalType":"contract IHooks"}]},{"name":"","type":"tuple","internalType":"struct ModifyLiquidityParams","components":[{"name":"tickLower","type":"int24","internalType":"int24"},{"name":"tickUpper","type":"int24","internalType":"int24"},{"name":"liquidityDelta","type":"int256","internalType":"int256"},{"name":"salt","type":"bytes32","internalType":"bytes32"}]},{"name":"","type":"int256","internalType":"BalanceDelta"},{"name":"","type":"int256","internalType":"BalanceDelta"},{"name":"","type":"bytes","internalType":"bytes"}],"outputs":[{"name":"","type":"bytes4","internalType":"bytes4"},{"name":"","type":"int256","internalType":"BalanceDelta"}],"stateMutability":"nonpayable"},{"type":"function","name":"afterDonate","inputs":[{"name":"","type":"address","internalType":"address"},{"name":"","type":"tuple","internalType":"struct PoolKey","components":[{"name":"currency0","type":"address","internalType":"Currency"},{"name":"currency1","type":"address","internalType":"Currency"},{"name":"fee","type":"uint24","internalType":"uint24"},{"name":"tickSpacing","type":"int24","internalType":"int24"},{"name":"hooks","type":"address","internalType":"contract IHooks"}]},{"name":"","type":"uint256","internalType":"uint256"},{"name":"","type":"uint256","internalType":"uint256"},{"name":"","type":"bytes","internalType":"bytes"}],"outputs":[{"name":"","type":"bytes4","internalType":"bytes4"}],"stateMutability":"nonpayable"},{"type":"function","name":"afterInitialize","inputs":[{"name":"","type":"address","internalType":"address"},{"name":"","type":"tuple","internalType":"struct PoolKey","components":[{"name":"currency0","type":"address","internalType":"Currency"},{"name":"currency1","type":"address","internalType":"Currency"},{"name":"fee","type":"uint24","internalType":"uint24"},{"name":"tickSpacing","type":"int24","internalType":"int24"},{"name":"hooks","type":"address","internalType":"contract IHooks"}]},{"name":"","type":"uint160","internalType":"uint160"},{"name":"","type":"int24","internalType":"int24"}],"outputs":[{"name":"","type":"bytes4","internalType":"bytes4"}],"stateMutability":"nonpayable"},{"type":"function","name":"afterRemoveLiquidity","inputs":[{"name":"","type":"address","internalType":"address"},{"name":"","type":"tuple","internalType":"struct PoolKey","components":[{"name":"currency0","type":"address","internalType":"Currency"},{"name":"currency1","type":"address","internalType":"Currency"},{"name":"fee","type":"uint24","internalType":"uint24"},{"name":"tickSpacing","type":"int24","internalType":"int24"},{"name":"hooks","type":"address","internalType":"contract IHooks"}]},{"name":"","type":"tuple","internalType":"struct ModifyLiquidityParams","components":[{"name":"tickLower","type":"int24","internalType":"int24"},{"name":"tickUpper","type":"int24","internalType":"int24"},{"name":"liquidityDelta","type":"int256","internalType":"int256"},{"name":"salt","type":"bytes32","internalType":"bytes32"}]},{"name":"","type":"int256","internalType":"BalanceDelta"},{"name":"","type":"int256","internalType":"BalanceDelta"},{"name":"","type":"bytes","internalType":"bytes"}],"outputs":[{"name":"","type":"bytes4","internalType":"bytes4"},{"name":"","type":"int256","internalType":"BalanceDelta"}],"stateMutability":"nonpayable"},{"type":"function","name":"afterSwap","inputs":[{"name":"","type":"address","internalType":"address"},{"name":"key","type":"tuple","internalType":"struct PoolKey","components":[{"name":"currency0","type":"address","internalType":"Currency"},{"name":"currency1","type":"address","internalType":"Currency"},{"name":"fee","type":"uint24","internalType":"uint24"},{"name":"tickSpacing","type":"int24","internalType":"int24"},{"name":"hooks","type":"address","internalType":"contract IHooks"}]},{"name":"params","type":"tuple","internalType":"struct SwapParams","components":[{"name":"zeroForOne","type":"bool","internalType":"bool"},{"name":"amountSpecified","type":"int256","internalType":"int256"},{"name":"sqrtPriceLimitX96","type":"uint160","internalType":"uint160"}]},{"name":"delta","type":"int256","internalType":"BalanceDelta"},{"name":"hookData","type":"bytes","internalType":"bytes"}],"outputs":[{"name":"","type":"bytes4","internalType":"bytes4"},{"name":"","type":"int128","internalType":"int128"}],"stateMutability":"nonpayable"},{"type":"function","name":"beforeAddLiquidity","inputs":[{"name":"","type":"address","internalType":"address"},{"name":"","type":"tuple","internalType":"struct PoolKey","components":[{"name":"currency0","type":"address","internalType":"Currency"},{"name":"currency1","type":"address","internalType":"Currency"},{"name":"fee","type":"uint24","internalType":"uint24"},{"name":"tickSpacing","type":"int24","internalType":"int24"},{"name":"hooks","type":"address","internalType":"contract IHooks"}]},{"name":"","type":"tuple","internalType":"struct ModifyLiquidityParams","components":[{"name":"tickLower","type":"int24","internalType":"int24"},{"name":"tickUpper","type":"int24","internalType":"int24"},{"name":"liquidityDelta","type":"int256","internalType":"int256"},{"name":"salt","type":"bytes32","internalType":"bytes32"}]},{"name":"","type":"bytes","internalType":"bytes"}],"outputs":[{"name":"","type":"bytes4","internalType":"bytes4"}],"stateMutability":"view"},{"type":"function","name":"beforeDonate","inputs":[{"name":"","type":"address","internalType":"address"},{"name":"","type":"tuple","internalType":"struct PoolKey","components":[{"name":"currency0","type":"address","internalType":"Currency"},{"name":"currency1","type":"address","internalType":"Currency"},{"name":"fee","type":"uint24","internalType":"uint24"},{"name":"tickSpacing","type":"int24","internalType":"int24"},{"name":"hooks","type":"address","internalType":"contract IHooks"}]},{"name":"","type":"uint256","internalType":"uint256"},{"name":"","type":"uint256","internalType":"uint256"},{"name":"","type":"bytes","internalType":"bytes"}],"outputs":[{"name":"","type":"bytes4","internalType":"bytes4"}],"stateMutability":"nonpayable"},{"type":"function","name":"beforeInitialize","inputs":[{"name":"sender","type":"address","internalType":"address"},{"name":"key","type":"tuple","internalType":"struct PoolKey","components":[{"name":"currency0","type":"address","internalType":"Currency"},{"name":"currency1","type":"address","internalType":"Currency"},{"name":"fee","type":"uint24","internalType":"uint24"},{"name":"tickSpacing","type":"int24","internalType":"int24"},{"name":"hooks","type":"address","internalType":"contract IHooks"}]},{"name":"","type":"uint160","internalType":"uint160"}],"outputs":[{"name":"","type":"bytes4","internalType":"bytes4"}],"stateMutability":"view"},{"type":"function","name":"beforeRemoveLiquidity","inputs":[{"name":"","type":"address","internalType":"address"},{"name":"","type":"tuple","internalType":"struct PoolKey","components":[{"name":"currency0","type":"address","internalType":"Currency"},{"name":"currency1","type":"address","internalType":"Currency"},{"name":"fee","type":"uint24","internalType":"uint24"},{"name":"tickSpacing","type":"int24","internalType":"int24"},{"name":"hooks","type":"address","internalType":"contract IHooks"}]},{"name":"","type":"tuple","internalType":"struct ModifyLiquidityParams","components":[{"name":"tickLower","type":"int24","internalType":"int24"},{"name":"tickUpper","type":"int24","internalType":"int24"},{"name":"liquidityDelta","type":"int256","internalType":"int256"},{"name":"salt","type":"bytes32","internalType":"bytes32"}]},{"name":"","type":"bytes","internalType":"bytes"}],"outputs":[{"name":"","type":"bytes4","internalType":"bytes4"}],"stateMutability":"view"},{"type":"function","name":"beforeSwap","inputs":[{"name":"","type":"address","internalType":"address"},{"name":"key","type":"tuple","internalType":"struct PoolKey","components":[{"name":"currency0","type":"address","internalType":"Currency"},{"name":"currency1","type":"address","internalType":"Currency"},{"name":"fee","type":"uint24","internalType":"uint24"},{"name":"tickSpacing","type":"int24","internalType":"int24"},{"name":"hooks","type":"address","internalType":"contract IHooks"}]},{"name":"params","type":"tuple","internalType":"struct SwapParams","components":[{"name":"zeroForOne","type":"bool","internalType":"bool"},{"name":"amountSpecified","type":"int256","internalType":"int256"},{"name":"sqrtPriceLimitX96","type":"uint160","internalType":"uint160"}]},{"name":"","type":"bytes","internalType":"bytes"}],"outputs":[{"name":"","type":"bytes4","internalType":"bytes4"},{"name":"","type":"int256","internalType":"BeforeSwapDelta"},{"name":"","type":"uint24","internalType":"uint24"}],"stateMutability":"nonpayable"},{"type":"function","name":"beneficiaryFeesETH","inputs":[{"name":"","type":"address","internalType":"address"}],"outputs":[{"name":"","type":"uint256","internalType":"uint256"}],"stateMutability":"view"},{"type":"function","name":"beneficiaryFeesToken","inputs":[{"name":"","type":"address","internalType":"address"},{"name":"","type":"address","internalType":"address"}],"outputs":[{"name":"","type":"uint256","internalType":"uint256"}],"stateMutability":"view"},{"type":"function","name":"claimBeneficiaryFeesETH","inputs":[{"name":"beneficiary","type":"address","internalType":"address"}],"outputs":[],"stateMutability":"nonpayable"},{"type":"function","name":"claimBeneficiaryFeesToken","inputs":[{"name":"beneficiary","type":"address","internalType":"address"},{"name":"token","type":"address","internalType":"address"}],"outputs":[],"stateMutability":"nonpayable"},{"type":"function","name":"claimPlatformFeesETH","inputs":[],"outputs":[],"stateMutability":"nonpayable"},{"type":"function","name":"claimPlatformFeesToken","inputs":[{"name":"token","type":"address","internalType":"address"}],"outputs":[],"stateMutability":"nonpayable"},{"type":"function","name":"config","inputs":[],"outputs":[{"name":"","type":"address","internalType":"contract ClawclickConfig"}],"stateMutability":"view"},{"type":"function","name":"getCurrentEpoch","inputs":[{"name":"poolId","type":"bytes32","internalType":"PoolId"}],"outputs":[{"name":"epoch","type":"uint256","internalType":"uint256"}],"stateMutability":"view"},{"type":"function","name":"getCurrentLimits","inputs":[{"name":"poolId","type":"bytes32","internalType":"PoolId"}],"outputs":[{"name":"maxTx","type":"uint256","internalType":"uint256"},{"name":"maxWallet","type":"uint256","internalType":"uint256"}],"stateMutability":"view"},{"type":"function","name":"getCurrentMcap","inputs":[{"name":"poolId","type":"bytes32","internalType":"PoolId"}],"outputs":[{"name":"mcap","type":"uint256","internalType":"uint256"}],"stateMutability":"view"},{"type":"function","name":"getCurrentTax","inputs":[{"name":"poolId","type":"bytes32","internalType":"PoolId"}],"outputs":[{"name":"taxBps","type":"uint256","internalType":"uint256"}],"stateMutability":"view"},{"type":"function","name":"getHookPermissions","inputs":[],"outputs":[{"name":"","type":"tuple","internalType":"struct Hooks.Permissions","components":[{"name":"beforeInitialize","type":"bool","internalType":"bool"},{"name":"afterInitialize","type":"bool","internalType":"bool"},{"name":"beforeAddLiquidity","type":"bool","internalType":"bool"},{"name":"afterAddLiquidity","type":"bool","internalType":"bool"},{"name":"beforeRemoveLiquidity","type":"bool","internalType":"bool"},{"name":"afterRemoveLiquidity","type":"bool","internalType":"bool"},{"name":"beforeSwap","type":"bool","internalType":"bool"},{"name":"afterSwap","type":"bool","internalType":"bool"},{"name":"beforeDonate","type":"bool","internalType":"bool"},{"name":"afterDonate","type":"bool","internalType":"bool"},{"name":"beforeSwapReturnDelta","type":"bool","internalType":"bool"},{"name":"afterSwapReturnDelta","type":"bool","internalType":"bool"},{"name":"afterAddLiquidityReturnDelta","type":"bool","internalType":"bool"},{"name":"afterRemoveLiquidityReturnDelta","type":"bool","internalType":"bool"}]}],"stateMutability":"pure"},{"type":"function","name":"getPoolIdForToken","inputs":[{"name":"token","type":"address","internalType":"address"}],"outputs":[{"name":"poolId","type":"bytes32","internalType":"PoolId"}],"stateMutability":"view"},{"type":"function","name":"globalExemptions","inputs":[{"name":"","type":"address","internalType":"address"}],"outputs":[{"name":"","type":"bool","internalType":"bool"}],"stateMutability":"view"},{"type":"function","name":"isGraduated","inputs":[{"name":"poolId","type":"bytes32","internalType":"PoolId"}],"outputs":[{"name":"graduated","type":"bool","internalType":"bool"}],"stateMutability":"view"},{"type":"function","name":"isGraduatedByToken","inputs":[{"name":"token","type":"address","internalType":"address"}],"outputs":[{"name":"graduated","type":"bool","internalType":"bool"}],"stateMutability":"view"},{"type":"function","name":"launches","inputs":[{"name":"","type":"bytes32","internalType":"PoolId"}],"outputs":[{"name":"token","type":"address","internalType":"address"},{"name":"beneficiary","type":"address","internalType":"address"},{"name":"startMcap","type":"uint256","internalType":"uint256"},{"name":"baseTax","type":"uint256","internalType":"uint256"},{"name":"startSqrtPrice","type":"uint160","internalType":"uint160"},{"name":"phase","type":"uint8","internalType":"enum ClawclickHook.Phase"},{"name":"liquidityStage","type":"uint8","internalType":"uint8"},{"name":"graduationMcap","type":"uint256","internalType":"uint256"}],"stateMutability":"view"},{"type":"function","name":"platformFeesETH","inputs":[],"outputs":[{"name":"","type":"uint256","internalType":"uint256"}],"stateMutability":"view"},{"type":"function","name":"platformFeesToken","inputs":[{"name":"","type":"address","internalType":"address"}],"outputs":[{"name":"","type":"uint256","internalType":"uint256"}],"stateMutability":"view"},{"type":"function","name":"poolManager","inputs":[],"outputs":[{"name":"","type":"address","internalType":"contract IPoolManager"}],"stateMutability":"view"},{"type":"function","name":"poolProgress","inputs":[{"name":"","type":"bytes32","internalType":"PoolId"}],"outputs":[{"name":"currentPosition","type":"uint256","internalType":"uint256"},{"name":"currentEpoch","type":"uint256","internalType":"uint256"},{"name":"lastEpochMCAP","type":"uint256","internalType":"uint256"},{"name":"graduated","type":"bool","internalType":"bool"}],"stateMutability":"view"},{"type":"function","name":"registerLaunch","inputs":[{"name":"key","type":"tuple","internalType":"struct PoolKey","components":[{"name":"currency0","type":"address","internalType":"Currency"},{"name":"currency1","type":"address","internalType":"Currency"},{"name":"fee","type":"uint24","internalType":"uint24"},{"name":"tickSpacing","type":"int24","internalType":"int24"},{"name":"hooks","type":"address","internalType":"contract IHooks"}]},{"name":"token","type":"address","internalType":"address"},{"name":"beneficiary","type":"address","internalType":"address"},{"name":"startMcap","type":"uint256","internalType":"uint256"},{"name":"sqrtPriceX96","type":"uint160","internalType":"uint160"}],"outputs":[],"stateMutability":"nonpayable"},{"type":"function","name":"setActivationInProgress","inputs":[{"name":"poolId","type":"bytes32","internalType":"PoolId"},{"name":"inProgress","type":"bool","internalType":"bool"}],"outputs":[],"stateMutability":"nonpayable"},{"type":"function","name":"setGlobalExemption","inputs":[{"name":"account","type":"address","internalType":"address"},{"name":"exempt","type":"bool","internalType":"bool"}],"outputs":[],"stateMutability":"nonpayable"},{"type":"function","name":"tokenToPoolId","inputs":[{"name":"","type":"address","internalType":"address"}],"outputs":[{"name":"","type":"bytes32","internalType":"PoolId"}],"stateMutability":"view"},{"type":"function","name":"userBalances","inputs":[{"name":"","type":"bytes32","internalType":"PoolId"},{"name":"","type":"address","internalType":"address"}],"outputs":[{"name":"","type":"uint256","internalType":"uint256"}],"stateMutability":"view"},{"type":"event","name":"EpochAdvanced","inputs":[{"name":"poolId","type":"bytes32","indexed":true,"internalType":"PoolId"},{"name":"position","type":"uint256","indexed":false,"internalType":"uint256"},{"name":"newEpoch","type":"uint256","indexed":false,"internalType":"uint256"},{"name":"currentMCAP","type":"uint256","indexed":false,"internalType":"uint256"}],"anonymous":false},{"type":"event","name":"FeeSplitDistributed","inputs":[{"name":"poolId","type":"bytes32","indexed":true,"internalType":"PoolId"},{"name":"wallet","type":"address","indexed":true,"internalType":"address"},{"name":"amount","type":"uint256","indexed":false,"internalType":"uint256"},{"name":"isETH","type":"bool","indexed":false,"internalType":"bool"}],"anonymous":false},{"type":"event","name":"FeesClaimed","inputs":[{"name":"recipient","type":"address","indexed":true,"internalType":"address"},{"name":"amount","type":"uint256","indexed":false,"internalType":"uint256"},{"name":"token","type":"address","indexed":false,"internalType":"address"}],"anonymous":false},{"type":"event","name":"FeesCollected","inputs":[{"name":"poolId","type":"bytes32","indexed":true,"internalType":"PoolId"},{"name":"totalFee","type":"uint256","indexed":false,"internalType":"uint256"},{"name":"beneficiaryShare","type":"uint256","indexed":false,"internalType":"uint256"},{"name":"platformShare","type":"uint256","indexed":false,"internalType":"uint256"},{"name":"isETH","type":"bool","indexed":false,"internalType":"bool"}],"anonymous":false},{"type":"event","name":"GlobalExemptionSet","inputs":[{"name":"account","type":"address","indexed":true,"internalType":"address"},{"name":"exempt","type":"bool","indexed":false,"internalType":"bool"}],"anonymous":false},{"type":"event","name":"Graduated","inputs":[{"name":"token","type":"address","indexed":true,"internalType":"address"},{"name":"poolId","type":"bytes32","indexed":true,"internalType":"PoolId"},{"name":"timestamp","type":"uint256","indexed":false,"internalType":"uint256"},{"name":"finalMcap","type":"uint256","indexed":false,"internalType":"uint256"}],"anonymous":false},{"type":"event","name":"LaunchCreated","inputs":[{"name":"poolId","type":"bytes32","indexed":true,"internalType":"PoolId"},{"name":"token","type":"address","indexed":true,"internalType":"address"},{"name":"beneficiary","type":"address","indexed":true,"internalType":"address"},{"name":"startMcap","type":"uint256","indexed":false,"internalType":"uint256"},{"name":"baseTax","type":"uint256","indexed":false,"internalType":"uint256"}],"anonymous":false},{"type":"event","name":"PhaseChanged","inputs":[{"name":"poolId","type":"bytes32","indexed":true,"internalType":"PoolId"},{"name":"newPhase","type":"uint8","indexed":true,"internalType":"enum ClawclickHook.Phase"},{"name":"timestamp","type":"uint256","indexed":false,"internalType":"uint256"},{"name":"finalMcap","type":"uint256","indexed":false,"internalType":"uint256"}],"anonymous":false},{"type":"event","name":"PositionTransition","inputs":[{"name":"poolId","type":"bytes32","indexed":true,"internalType":"PoolId"},{"name":"newPosition","type":"uint256","indexed":false,"internalType":"uint256"}],"anonymous":false},{"type":"event","name":"SwapExecuted","inputs":[{"name":"poolId","type":"bytes32","indexed":true,"internalType":"PoolId"},{"name":"swapper","type":"address","indexed":true,"internalType":"address"},{"name":"isBuy","type":"bool","indexed":false,"internalType":"bool"},{"name":"currentMcap","type":"uint256","indexed":false,"internalType":"uint256"},{"name":"epoch","type":"uint256","indexed":false,"internalType":"uint256"},{"name":"taxBps","type":"uint256","indexed":false,"internalType":"uint256"},{"name":"feeAmount","type":"uint256","indexed":false,"internalType":"uint256"},{"name":"isETHFee","type":"bool","indexed":false,"internalType":"bool"}],"anonymous":false},{"type":"error","name":"AlreadyGraduated","inputs":[]},{"type":"error","name":"ExceedsMaxTx","inputs":[]},{"type":"error","name":"ExceedsMaxWallet","inputs":[]},{"type":"error","name":"LaunchNotFound","inputs":[]},{"type":"error","name":"NoFeesToClaim","inputs":[]},{"type":"error","name":"NotFactory","inputs":[]},{"type":"error","name":"NotTreasury","inputs":[]},{"type":"error","name":"PoolNotActivated","inputs":[]},{"type":"error","name":"ProtocolPaused","inputs":[]},{"type":"error","name":"ReentrancyGuardReentrantCall","inputs":[]},{"type":"error","name":"TransferFailed","inputs":[]}],"bytecode":{"object":"0x60c0346200013557601f620033dc38819003918201601f19168301916001600160401b0383118484101762000139578084926040948552833981010312620001355780516001600160a01b039182821682036200013557602001519182168203620001355760805260017f9b779b17422d0df92223018b32b4d1fa46e071723d6817e2486d003becc55f005560a05260405161328e90816200014e823960805181818161069f0152818161080901528181610b0201528181610b7001528181610d3001528181610f330152818161133501528181611dec0152818161298a0152612eb1015260a0518181816102bc015281816104620152818161075c01528181610e2c01528181610fd0015281816113b0015281816118220152818161224b0152818161240101528181612909015261308e0152f35b5f80fd5b634e487b7160e01b5f52604160045260245ffdfe60a08060405260048036101561001e575b5050361561001c575f80fd5b005b5f3560e01c91826321d0ee7014611b1957508163249d39e914611afd578163259982e514611ad957816325c0ce3614611abd5781632721b78814611a8d578163321b910914611a4057816335df0ec1146117e657816342e48a58146117ae57816348a5c118146117935781635061ab5d146108b15781635283b29a1461176a578163575e24b4146116e857816357da456c146116cc5781635c4f8c79146115655781636888a90e1461137f5781636c2bbe7e1461131d5781636f8b6e7014610f735781636fe7e6eb14610ef157816372e3927614610e9857816375f6d07f14610e5b57816379502c5514610e175781638322fff214610dfd5781638f47a66314610de2578163902d55a514610dbc57816399f34c1214610d9c5781639e512efd14610d7a5781639f063efc14610d18578163ace9a6b61461023c578163ad09123014610c74578163b33fe01114610c31578163b47b2fb114610bb5578163b6a8b0fa14610b58578163bd2670b514610ac9578163c4e833ce1461093a578163c9e64f17146108e9578163d587d363146108b1578163d814fe581461088c578163d846435414610870578163dbcede9914610838578163dc4c90d3146107f4578163dc98354e14610711578163df7e6e38146106e4578163e1b4af6914610687578163ed2e083614610422578163f28b6a991461036b578163f7b9568b14610286578163fee465661461025b575063ffbd69051461023c575f80610010565b34610257575f36600319011261025757602060405160648152f35b5f80fd5b3461025757602036600319011261025757355f52600a6020526020600160405f200154604051908152f35b346102575760403660031901126102575761029f611ccd565b60405163c45a015560e01b81526001600160a01b039060208185817f000000000000000000000000000000000000000000000000000000000000000086165afa908115610360575f91610326575b501633036103165761001c91355f52600760205260405f209060ff801983541691151516179055565b50604051631966391b60e11b8152fd5b90506020813d602011610358575b8161034160209383611d27565b810103126102575761035290611d48565b846102ed565b3d9150610334565b6040513d5f823e3d90fd5b3461025757602036600319011261025757610384611b3b565b61038c612f87565b6001600160a01b0381165f81815260026020526040902054909290918215610412575f808085819488835260026020528260408120555af16103cc611d77565b5015610403575060405f805160206132198339815191529181519081525f6020820152a260015f8051602061323983398151915255005b6040516312171d8360e31b8152fd5b5060405163211b631760e21b8152fd5b346102575760403660031901126102575761043b611b3b565b90610444611ccd565b604051638da5cb5b60e01b815290926020916001600160a01b0391907f000000000000000000000000000000000000000000000000000000000000000083169084818781855afa80156103605784869188935f9161064e575b501633149283156105e4575b505050156105a85716918215610566578315908180610551575b610514575061050a83947fd9ccffdc5aa463da433f4f871ef5f7de6570d886fbee4e77f7c26f2f39b881a9945f52600b845260405f209060ff801983541691151516179055565b60405190158152a2005b60405162461bcd60e51b81529081018390526016602482015275115e195b5c1d1a5bdb881a5cc81c195c9b585b995b9d60521b6044820152606490fd5b50835f52600b835260ff60405f2054166104c3565b6064916040519162461bcd60e51b8352820152601a60248201527f43616e6e6f74206578656d7074207a65726f20616464726573730000000000006044820152fd5b60405162461bcd60e51b815280850184905260156024820152744f6e6c79206f776e6572206f7220666163746f727960581b6044820152606490fd5b60405163c45a015560e01b815293509091839182905afa80156103605783915f91610616575b501633148484886104a9565b809250858092503d8311610647575b61062f8183611d27565b81010312610257576106418391611d48565b8761060a565b503d610625565b9350505081813d8311610680575b6106668183611d27565b8101031261025757848461067a8893611d48565b8a61049d565b503d61065c565b346102575761069536611c76565b506106d2945050337f00000000000000000000000000000000000000000000000000000000000000006001600160a01b031614925061284e915050565b60405163e1b4af6960e01b8152602090f35b3461025757602036600319011261025757355f526007602052602060ff60405f2054166040519015158152f35b346102575760e03660031901126102575761072a611b3b565b60a03660231901126102575761073e611b67565b5060405163c45a015560e01b81526001600160a01b039060208185817f000000000000000000000000000000000000000000000000000000000000000086165afa80156103605782915f916107b8575b50169116036107a957604051636e4c1aa760e11b8152602090f35b604051631966391b60e11b8152fd5b9150506020813d6020116107ec575b816107d460209383611d27565b81010312610257576107e68291611d48565b8561078e565b3d91506107c7565b34610257575f366003190112610257576040517f00000000000000000000000000000000000000000000000000000000000000006001600160a01b03168152602090f35b34610257576020366003190112610257576001600160a01b03610859611b3b565b165f526005602052602060405f2054604051908152f35b34610257575f366003190112610257576020604051610bb88152f35b34610257576020366003190112610257576108a960209135612f50565b604051908152f35b34610257576020366003190112610257576001600160a01b036108d2611b3b565b165f526001602052602060405f2054604051908152f35b3461025757602036600319011261025757355f908152600a60209081526040918290208054600182015460028301546003909301548551928352938201529283015260ff1615156060820152608090f35b34610257575f366003190112610257575f6101a060405161095a81611cdc565b8281528260208201528260408201528260608201528260808201528260a08201528260c08201528260e0820152826101008201528261012082015282610140820152826101608201528261018082015201526101c06040516109bb81611cdc565b600181525f6020820152600160408201525f6060820152600160808201525f60a0820152600160c0820152600160e08201525f6101008201525f61012082015260016101408201525f6101608201525f6101808201525f6101a08201526101a0604051916001835260208101511515602084015260408101511515604084015260608101511515606084015260808101511515608084015260a0810151151560a084015260c0810151151560c084015260e0810151151560e084015261010081015115156101008401526101208101511515610120840152610140810151151561014084015261016081015115156101608401526101808101511515610180840152015115156101a0820152f35b346102575760203660031901126102575780355f818152602081905260409020546001600160a01b039290831615610b495750610b26907f0000000000000000000000000000000000000000000000000000000000000000612fb6565b505050168015610257576108a981602092676765c793fa10079d607b1b04613196565b604051630f70e9f360e21b8152fd5b3461025757610b6636611c76565b50610ba3945050337f00000000000000000000000000000000000000000000000000000000000000006001600160a01b031614925061284e915050565b604051635b54587d60e11b8152602090f35b346102575761016036600319011261025757610bcf611b3b565b5060a03660231901126102575760603660c31901126102575761014435906001600160401b03821161025757610c0d610c1791604093369101611b7d565b906101243561289a565b82516001600160e01b03199092168252600f0b6020820152f35b3461025757604036600319011261025757610c4a611b51565b90355f52600660205260405f209060018060a01b03165f52602052602060405f2054604051908152f35b346102575760203660031901126102575780355f525f60205260405f2060018060a01b03918282541691836001820154169160028201549460038301548284015496600560ff8960a01c1695015495604051978852602088015260408701526060860152851660808501526002821015610d0557506101009360ff9160a085015260a81c1660c083015260e0820152f35b602190634e487b7160e01b5f525260245ffd5b3461025757610d2636611c0d565b50610d64955050337f00000000000000000000000000000000000000000000000000000000000000006001600160a01b031614935061284e92505050565b604080516327c18fbf60e21b81525f6020820152f35b34610257575f366003190112610257576020604051670de0b6b3a76400008152f35b34610257575f366003190112610257576020604051655af3107a40008152f35b34610257575f3660031901126102575760206040516b033b2e3c9fd0803ce80000008152f35b34610257575f366003190112610257576020604051600a8152f35b34610257575f3660031901126102575760206040515f8152f35b34610257575f366003190112610257576040517f00000000000000000000000000000000000000000000000000000000000000006001600160a01b03168152602090f35b34610257576020366003190112610257576001600160a01b03610e7c611b3b565b165f52600b602052602060ff60405f2054166040519015158152f35b34610257576020366003190112610257576001600160a01b03610eb9611b3b565b165f52600160205260405f20545f525f60205260ff8160405f20015460a01c16906002821015610d0557602082600160405191148152f35b346102575761010036600319011261025757610f0b611b3b565b5060a036602319011261025757610f20611b67565b5060e4358060020b0361025757610f61337f00000000000000000000000000000000000000000000000000000000000000006001600160a01b03161461284e565b604051636fe7e6eb60e01b8152602090f35b3461025757366003190161012081126102575760a013610257576001600160a01b039060a435828116919082900361025757610fad611b67565b9260e4359061010435908082168092036102575760405163c45a015560e01b81527f00000000000000000000000000000000000000000000000000000000000000008216946020929091838184818a5afa80156103605782915f916112e5575b5016330361031657670de0b6b3a764000085106112ad576040519361103185611d0c565b823582811681036102575785526024358281168103610257578486015260443562ffffff811681036102575760408601526064358060020b81036102575760608601526084359482861686036102575760a081602497608088940152209760405196878092633c9f40d360e01b82528a888301525afa948515610360575f9561127e575b50604051906101008201926001600160401b03938381108582111761126b57908992916040528a8452808785019c169b8c815260408501918a8352606086018a81526080870194855260a08701935f855260c08801935f855260e08901975f89525f525f8c528360405f209951166bffffffffffffffffffffffff60a01b90818b5416178a558460018b019251169082541617905551600288015551600387015587860193511683549251916002831015611258575160a09290921b60ff60a01b166001600160b01b0319909316179190911760a89190911b60ff60a81b1617905551600591909101555f878152600184526040908190208790555191608083019182118383101761124557509161123a604094927fe0fec6b7f1dc8c77dd18146f371ce2286a265b90cbe4aaeb891c14b171db4774969486526001815260038382016001815287830187815260608401915f83528b5f52600a8752895f209451855551600185015551600284015551151591019060ff801983541691151516179055565b8351928352820152a4005b604190634e487b7160e01b5f525260245ffd5b602189634e487b7160e01b5f525260245ffd5b604186634e487b7160e01b5f525260245ffd5b9094508381813d83116112a6575b6112968183611d27565b81010312610257575193896110b5565b503d61128c565b506064916040519162461bcd60e51b835282015260126024820152715374617274204d43415020746f6f206c6f7760701b6044820152fd5b809250858092503d8311611316575b6112fe8183611d27565b81010312610257576113108291611d48565b8a61100d565b503d6112f4565b346102575761132b36611c0d565b50611369955050337f00000000000000000000000000000000000000000000000000000000000000006001600160a01b031614935061284e92505050565b60408051633615df3f60e11b81525f6020820152f35b34610257575f36600319011261025757611397612f87565b6040516361d027b360e01b8082526001600160a01b03917f000000000000000000000000000000000000000000000000000000000000000083169160209182818781875afa80156103605785915f9161152d575b5016330361151c57845494851561150d575f815560405182815283818381885afa80156103605787915f916114cd575b505f80809381935af161142c611d77565b5015610403579082916040518095819382525afa918215610360575f92611481575b50916040915f5f805160206132198339815191529484519687528601521692a260015f8051602061323983398151915255005b9150918282813d83116114c6575b6114998183611d27565b81010312610257575f80516020613219833981519152925f6114bc604094611d48565b935050909261144e565b503d61148f565b809250858092503d8311611506575b6114e68183611d27565b81010312610257575f8080896114fc8295611d48565b935093505061141b565b503d6114dc565b60405163211b631760e21b8152fd5b60405163b90cdbb160e01b81528590fd5b809250848092503d831161155e575b6115468183611d27565b81010312610257576115588591611d48565b876113eb565b503d61153c565b346102575760403660031901126102575761157e611b3b565b611586611b51565b61158e612f87565b60018060a01b0380831692835f526020906003825260405f2092841692835f52825260405f20549283156116bb575f868152600384526040808220928252918452818120819055905163a9059cbb60e01b8185019081526001600160a01b039093166024820152604481018590529091829161161781606481015b03601f198101835282611d27565b519082875af190611626611d77565b9115918215611688575b505061167757604080519182526001600160a01b0390921660208201525f8051602061321983398151915291819081015b0390a260015f8051602061323983398151915255005b6040516312171d8360e31b81528490fd5b80919250519182151592836116a2575b5050508580611630565b6116b29350820181019101611da6565b15858080611698565b60405163211b631760e21b81528790fd5b34610257575f3660031901126102575760209054604051908152f35b346102575761014036600319011261025757611702611b3b565b5060a03660231901126102575760603660c31901126102575761012435906001600160401b0382116102575761173a91369101611b7d565b5050606062ffffff61174a6121ef565b906040939293519363ffffffff60e01b1684526020840152166040820152f35b346102575760203660031901126102575761178760409135611dbe565b82519182526020820152f35b34610257575f36600319011261025757602090604051908152f35b34610257576020366003190112610257576001600160a01b036117cf611b3b565b165f526002602052602060405f2054604051908152f35b346102575760208060031936011261025757611800611b3b565b611808612f87565b6040516361d027b360e01b8082526001600160a01b0392917f00000000000000000000000000000000000000000000000000000000000000008416919085818881865afa80156103605785915f91611a08575b501633036119f75783831695865f526005865260405f2054968715610412575f52600586525f604081205560405182815286818381875afa908115610360575f916119bf575b5060405163a9059cbb60e01b8882019081526001600160a01b039092166024820152604481018990525f9182916118db8160648101611609565b519082885af16118e9611d77565b901590811561198e575b50610403579085916040518094819382525afa938415610360575f94611948575b5050604080519485526001600160a01b0390911660208501529116915f805160206132198339815191529181908101611661565b90809450813d8311611987575b61195f8183611d27565b81010312610257576116616119815f8051602061321983398151915294611d48565b93611914565b503d611955565b805180151592508890836119a6575b505050886118f3565b6119b69350820181019101611da6565b1588878161199d565b90508681813d83116119f0575b6119d68183611d27565b81010312610257575f6119e98192611d48565b91506118a1565b503d6119cc565b60405163b90cdbb160e01b81528690fd5b809250878092503d8311611a39575b611a218183611d27565b8101031261025757611a338591611d48565b8861185b565b503d611a17565b3461025757604036600319011261025757611a59611b3b565b611a61611b51565b9060018060a01b038091165f52600360205260405f2091165f52602052602060405f2054604051908152f35b3461025757602036600319011261025757355f52600a602052602060ff600360405f200154166040519015158152f35b34610257575f366003190112610257576020604051611b588152f35b3461025757611ae736611baa565b5050505050602060405163259982e560e01b8152f35b34610257575f3660031901126102575760206040516127108152f35b3461025757602090611b2a36611baa565b505063021d0ee760e41b8452505050f35b600435906001600160a01b038216820361025757565b602435906001600160a01b038216820361025757565b60c435906001600160a01b038216820361025757565b9181601f84011215610257578235916001600160401b038311610257576020838186019501011161025757565b90610160600319830112610257576004356001600160a01b0381168103610257579160a060231982011261025757602491608060c3198301126102575760c49161014435906001600160401b03821161025757611c0991600401611b7d565b9091565b906101a0600319830112610257576004356001600160a01b0381168103610257579160a060231982011261025757602491608060c3198301126102575760c4916101443591610164359161018435906001600160401b03821161025757611c0991600401611b7d565b610120600319820112610257576004356001600160a01b0381168103610257579160a06023198301126102575760249160c4359160e4359161010435906001600160401b03821161025757611c0991600401611b7d565b60243590811515820361025757565b6101c081019081106001600160401b03821117611cf857604052565b634e487b7160e01b5f52604160045260245ffd5b60a081019081106001600160401b03821117611cf857604052565b90601f801991011681019081106001600160401b03821117611cf857604052565b51906001600160a01b038216820361025757565b6001600160401b038111611cf857601f01601f191660200190565b3d15611da1573d90611d8882611d5c565b91611d966040519384611d27565b82523d5f602084013e565b606090565b90816020910312610257575180151581036102575790565b90815f525f60205260405f209160ff600484015460a01c166002811015611e5d57600114611e5457611e10907f0000000000000000000000000000000000000000000000000000000000000000612fb6565b5050506001600160a01b03168015610257576002611e3e82611e5193676765c793fa10079d607b1b04613196565b930154611e4b8185613070565b93613070565b90565b505f1991508190565b634e487b7160e01b5f52602160045260245ffd5b60a09060231901126102575760405190611e8a82611d0c565b6001600160a01b03826024358281168103610257578152604435828116810361025757602082015260643562ffffff811681036102575760408201526084358060020b810361025757606082015260a43591821682036102575760800152565b9080601f8301121561025757815190611f0282611d5c565b92611f106040519485611d27565b82845260209160208483010111610257575f5b838110611f385750505060205f918301015290565b8181018301518582018401528201611f23565b60209182828203126102575781516001600160401b0392838211610257570191828203916103408312610257576040918251956101809485880188811084821117611cf8578552611f9b87611d48565b8852611fa8828801611d48565b82890152611fb7858801611d48565b85890152611fc760608801611d48565b60608901526080870151608089015260a0609f1982011261025757845190611fee82611d0c565b611ffa60a08901611d48565b825261200860c08901611d48565b8383015260e088015162ffffff81168103610257578683015261010091828901518060020b8103610257576060820152610120898101519091906001600160a01b038116810361025757608082015260a08b015261014092838a015160c08c015261016098898b015160e08d01528a0151908b01526101a08901518581116102575786612096918b01611eea565b908a01526101c088015191848311610257576120b58689948b01611eea565b908a01526101df190112610257578351956060870192831187841017611cf857828552836101ff82011215610257576120ed83611d0c565b8261028082019385851161025757836101e08401915b8683106121715750505087528361029f820112156102575784519261212784611d0c565b61032084920194851161025757905b848210612157575050850152519060ff821682036102575783015282015290565b815161ffff81168103610257578152908201908201612136565b819061217c84611d48565b8152019101908490612103565b9190820180921161219657565b634e487b7160e01b5f52601160045260245ffd5b8181029291811591840414171561219657565b9190820391821161219657565b9060058110156121db5760051b0190565b634e487b7160e01b5f52603260045260245ffd5b60a06121fa36611e71565b2090815f525f60205260405f2091600a60205260405f2060018060a01b0384541690811561283c57325f52600b60205260ff60405f2054166127905760405163c45a015560e01b81526020816004817f00000000000000000000000000000000000000000000000000000000000000006001600160a01b03165afa908115610360575f916127fe575b5060405163eedc76a960e01b815260048101859052905f90829060249082906001600160a01b03165afa908115610360575f916127e4575b5060608101516001600160a01b0316321490816127cb575b50806127ba575b80156127a4575b6127905760018154118015612782575b61276d5760e4355f81121561276757600160ff1b8114612196575f03905b655af3107a4000821061272a576127109161233761233d92600160038a015491015490613167565b906121aa565b04936f7fffffffffffffffffffffffffffffff85116126f65760c435151560c4350361025757841580156123ad575b5050505f5260086020528160405f2055600960205261239c60c43560405f209060ff801983541691151516179055565b6315d7892d60e21b9160801b905f90565b909193611b5891868381020483141715612196576123d161271083880204876121bd565b9460c435156126d957506123e785600454612189565b6004555b60405163c45a015560e01b8152906020826004817f00000000000000000000000000000000000000000000000000000000000000006001600160a01b03165afa918215610360575f9261269b575b5060405163eedc76a960e01b815260048101869052915f90839060249082906001600160a01b03165afa918215610360575f92612677575b506101608201516040015160ff16156125d7575f5b6101608301516080528760ff604060805101511660ff8316101561257d578180887f75e9383f8cd3b4bae0a7e5e1018c766170dce19907f5e9e58fbdb2f9cc108af76040612710612516600197828d61ffff61250c8f602060ff9f60ff6001916124fe82846101609560a01b039216608051516121ca565b51169e1692015101516121ca565b51169202046121aa565b0460c4351561254f57845f526002602052815f20612535828254612189565b90555b815190815260c43515156020820152a30116612486565b845f526003602052815f20878060a01b038d54165f52602052815f20612576828254612189565b9055612538565b5050948493507f23b25cc6dab66cadfaf4bc96294f6b28b35547706de5b380a8e554194894396d9291505b6040805188815261271093890293909304602084015282015260c43515156060820152608090a25f808061236c565b9484937f23b25cc6dab66cadfaf4bc96294f6b28b35547706de5b380a8e554194894396d93925060c4351561263a57600101546001600160a01b03165f9081526002602052604090208054612633906127108a86020490612189565b90556125a8565b60018060a01b036001820154165f52600360205260405f209060018060a01b039054165f5260205260405f20612633612710848a02048254612189565b6126949192503d805f833e61268c8183611d27565b810190611f4b565b905f612471565b91506020823d6020116126d1575b816126b660209383611d27565b81010312610257575f6126ca602493611d48565b9250612439565b3d91506126a9565b5f52600560205260405f206126ef868254612189565b90556123eb565b60405162461bcd60e51b815260206004820152600c60248201526b466565206f766572666c6f7760a01b6044820152606490fd5b60405162461bcd60e51b815260206004820152601560248201527414ddd85c08185b5bdd5b9d081d1bdbc81cdb585b1b605a1b6044820152606490fd5b9061230f565b506315d7892d60e21b93505f92606492509050565b5060ff6003820154166122f1565b506315d7892d60e21b93505f928392509050565b50825f52600760205260ff60405f2054166122e1565b5060c43580151581146122da575f80fd5b60e091500151603c81018091116121965742105f6122d3565b6127f891503d805f833e61268c8183611d27565b5f6122bb565b90506020813d602011612834575b8161281960209383611d27565b81010312610257575f61282d602492611d48565b9150612283565b3d915061280c565b604051630f70e9f360e21b8152600490fd5b1561285557565b60405162461bcd60e51b815260206004820152600f60248201526e2737ba102837b7b626b0b730b3b2b960891b6044820152606490fd5b5f1981146121965760010190565b9092916128a636611e71565b9360a05f9520805f526020905f8252604093845f2093600a8452855f209060088552865f2080549081612e7f575b5050838a526007855260ff878b205416612bdf57865163c45a015560e01b81526004936001600160a01b0392918c90888188817f000000000000000000000000000000000000000000000000000000000000000089165afa908115612e7557908291869391612e3a575b5060248c518094819363eedc76a960e01b83528c8c840152165afa908115612e30578d91612e16575b508360608201511632149081612dea575b5080612dd9575b612a1457826129ae877f0000000000000000000000000000000000000000000000000000000000000000612fb6565b505050168015610257576129d090676765c793fa10079d607b1b819004613196565b936002810180549060019180831b9080820460021490151715612db9578a8a928e898f8c95861015612c11575b505050505050508154149081612c01575b50612a2b575b5063b47b2fb160e01b9a9998505050505050505050565b8690818110612bf857829081010312612bf45735818116809103612bf4575b1694858a52600b855260ff878b205416612bdf5760020196612a6d885483613070565b9060c43580151581036102575715612b1557600f0b908a8213612aa4575b5050505050505050505b5f808080808080808080612a14565b8111612b055790612aca612ad292858c5260068752888c20885f528752885f2054612189565b975490613070565b8611612af75750865260068152828620915f52525f20555f8080808080808080612a8b565b8451630ebe2dbd60e41b8152fd5b8651632b70fd5560e01b81528390fd5b91509198979650600f0b878112612b35575b505050505050909150612a95565b6f7fffffffffffffffffffffffffffffff198114612bcc578703600f0b908111612bbc57869750818796975260068352848620845f528352845f2054808210155f14612b9b575050845260068152828420915f52525f20555b81905f8080808080612b27565b612ba69296506121bd565b93865260068152828620915f52525f2055612b8e565b8451632b70fd5560e01b81528890fd5b634e487b7160e01b885260118952602488fd5b5063b47b2fb160e01b98979650505050505050565b8a80fd5b50505033612a4a565b60ff91506003015416155f612a0e565b8d888a541480612dcd575b80612d81575b889392919080612d72575b612ce3575b9150508780925089019386612c47865461288c565b9182875555877fd6a0334c5b548c0321f2eee215a7c8f837c3d9936cb5e04b19411fea3391059460608c54998751908b8252858b83015288820152a21180612cd9575b612c9a575b508a9350898f6129fd565b612cc47fe980e250f4c7df4333fa1dbc00ab6f71c097a15bcb1f7d936892cb1844a320649561288c565b928389555551908152a2875f8a818e85612c8f565b5060058510612c8a565b60038b018a60ff198254161790558101600160a01b60ff60a01b1982541617905586600582015554167f38b20cb5110bddd584591f48d073b7c2fd750721141e9b7f0b67dd0856ed44f98380514281528888820152a385857f1168ed87767a422ad53927f70f4610ee5526ceb00fe42f1e483004cf0773c1bc8380514281528888820152a3848f8b908e612c32565b5060ff60038c01541615612c2d565b505093505050925060029150015480891b9080820460101490151715612db9578a8a928e848f8b908e8e978810159091929350612c22565b50634e487b7160e01b8f526011885260248ffd5b5080898b015414612c1c565b5060c435801515811461297f575f80fd5b60e091500151603c8101809111612e035742105f612978565b634e487b7160e01b8d526011865260248dfd5b612e2a91503d808f833e61268c8183611d27565b5f612967565b8a513d8f823e3d90fd5b8093508a8092503d8311612e6e575b612e538183611d27565b81010312612e6b57612e658592611d48565b5f61293e565b80fd5b503d612e49565b8b513d84823e3d90fd5b5f90556009865260ff885f2054165f14612f39576024356001600160a01b0381168103610257575b6001600160a01b037f00000000000000000000000000000000000000000000000000000000000000008116803b15610257575f92836064928d519687958694630b0d9c0960e01b865216600485015230602485015260448401525af18015612f2f57612f14575b806128d4565b9099506001600160401b038111611cf85786525f985f612f0e565b88513d5f823e3d90fd5b6044356001600160a01b0381168114612ea7575f80fd5b5f52600a60205260405f2060ff600382015416612f8257611e51905f6020526001600360405f20015491015490613167565b505f90565b5f805160206132398339815191526002815414612fa45760029055565b604051633ee5aeb560e01b8152600490fd5b6040805160208101938452600681830152908152929160608401906001600160401b03821185831017611cf857604082905284519020631e2eaeaf60e01b825260648501526001600160a01b03916020908290602490829086165afa938415610360575f9461303f575b50508216918060a01c60020b9162ffffff808360b81c169260d01c1690565b602080929395503d8311613069575b6130588185611d27565b810103126102575751915f80613020565b503d61304e565b604051630c6a37bf60e41b81526004810183905290916020826024817f00000000000000000000000000000000000000000000000000000000000000006001600160a01b03165afa918215610360575f92613133575b50612710928381029080820485149015171561219657811561311f5783916130ef9104836121aa565b0490808210613117575b506b033b2e3c9fd0803ce80000009080820291820403612196570490565b90505f6130f9565b634e487b7160e01b5f52601260045260245ffd5b9091506020813d60201161315f575b8161314f60209383611d27565b810103126102575751905f6130c6565b3d9150613142565b906004811461318f5760038114613188576002146131825790565b60011c90565b5060021c90565b5060031c90565b90606082901b90600160601b5f19818509938380861095039480860395868511156102575714613210579082910981805f0316809204600280826003021880830282030280830282030280830282030280830282030280830282030280920290030293600183805f03040190848311900302920304170290565b50509150049056fe733811a738d36283974d5df8448b4be8e2a7fbfe5c8db4de5cc92c4eb429631e9b779b17422d0df92223018b32b4d1fa46e071723d6817e2486d003becc55f00a2646970667358221220e184004205850d39a6debce484e29126353828d9f58157740503ae235a174b8b64736f6c63430008180033","linkReferences":{}},"methodIdentifiers":{"BASE_LIMIT_BPS()":"8f47a663","BENEFICIARY_SHARE_BPS()":"25c0ce36","BPS()":"249d39e9","ETH()":"8322fff2","GRADUATED_POOL_FEE()":"ace9a6b6","GRADUATION_EPOCH()":"48a5c118","MIN_START_MCAP()":"9e512efd","MIN_SWAP_AMOUNT()":"99f34c12","PLATFORM_SHARE_BPS()":"d8464354","TAX_FLOOR_BPS()":"ffbd6905","TOTAL_SUPPLY()":"902d55a5","activationInProgress(bytes32)":"df7e6e38","afterAddLiquidity(address,(address,address,uint24,int24,address),(int24,int24,int256,bytes32),int256,int256,bytes)":"9f063efc","afterDonate(address,(address,address,uint24,int24,address),uint256,uint256,bytes)":"e1b4af69","afterInitialize(address,(address,address,uint24,int24,address),uint160,int24)":"6fe7e6eb","afterRemoveLiquidity(address,(address,address,uint24,int24,address),(int24,int24,int256,bytes32),int256,int256,bytes)":"6c2bbe7e","afterSwap(address,(address,address,uint24,int24,address),(bool,int256,uint160),int256,bytes)":"b47b2fb1","beforeAddLiquidity(address,(address,address,uint24,int24,address),(int24,int24,int256,bytes32),bytes)":"259982e5","beforeDonate(address,(address,address,uint24,int24,address),uint256,uint256,bytes)":"b6a8b0fa","beforeInitialize(address,(address,address,uint24,int24,address),uint160)":"dc98354e","beforeRemoveLiquidity(address,(address,address,uint24,int24,address),(int24,int24,int256,bytes32),bytes)":"21d0ee70","beforeSwap(address,(address,address,uint24,int24,address),(bool,int256,uint160),bytes)":"575e24b4","beneficiaryFeesETH(address)":"42e48a58","beneficiaryFeesToken(address,address)":"321b9109","claimBeneficiaryFeesETH(address)":"f28b6a99","claimBeneficiaryFeesToken(address,address)":"5c4f8c79","claimPlatformFeesETH()":"6888a90e","claimPlatformFeesToken(address)":"35df0ec1","config()":"79502c55","getCurrentEpoch(bytes32)":"fee46566","getCurrentLimits(bytes32)":"5283b29a","getCurrentMcap(bytes32)":"bd2670b5","getCurrentTax(bytes32)":"d814fe58","getHookPermissions()":"c4e833ce","getPoolIdForToken(address)":"5061ab5d","globalExemptions(address)":"75f6d07f","isGraduated(bytes32)":"2721b788","isGraduatedByToken(address)":"72e39276","launches(bytes32)":"ad091230","platformFeesETH()":"57da456c","platformFeesToken(address)":"dbcede99","poolManager()":"dc4c90d3","poolProgress(bytes32)":"c9e64f17","registerLaunch((address,address,uint24,int24,address),address,address,uint256,uint160)":"6f8b6e70","setActivationInProgress(bytes32,bool)":"f7b9568b","setGlobalExemption(address,bool)":"ed2e0836","tokenToPoolId(address)":"d587d363","userBalances(bytes32,address)":"b33fe011"},"id":84}