{"abi":[{"type":"constructor","inputs":[{"name":"_name","type":"string","internalType":"string"},{"name":"_symbol","type":"string","internalType":"string"},{"name":"_hook","type":"address","internalType":"address"},{"name":"_beneficiary","type":"address","internalType":"address"},{"name":"_agentWallet","type":"address","internalType":"address"}],"stateMutability":"nonpayable"},{"type":"function","name":"TOTAL_SUPPLY","inputs":[],"outputs":[{"name":"","type":"uint256","internalType":"uint256"}],"stateMutability":"view"},{"type":"function","name":"agentWallet","inputs":[],"outputs":[{"name":"","type":"address","internalType":"address"}],"stateMutability":"view"},{"type":"function","name":"allowance","inputs":[{"name":"owner","type":"address","internalType":"address"},{"name":"spender","type":"address","internalType":"address"}],"outputs":[{"name":"","type":"uint256","internalType":"uint256"}],"stateMutability":"view"},{"type":"function","name":"approve","inputs":[{"name":"spender","type":"address","internalType":"address"},{"name":"value","type":"uint256","internalType":"uint256"}],"outputs":[{"name":"","type":"bool","internalType":"bool"}],"stateMutability":"nonpayable"},{"type":"function","name":"balanceOf","inputs":[{"name":"account","type":"address","internalType":"address"}],"outputs":[{"name":"","type":"uint256","internalType":"uint256"}],"stateMutability":"view"},{"type":"function","name":"beneficiary","inputs":[],"outputs":[{"name":"","type":"address","internalType":"address"}],"stateMutability":"view"},{"type":"function","name":"createdAt","inputs":[],"outputs":[{"name":"","type":"uint256","internalType":"uint256"}],"stateMutability":"view"},{"type":"function","name":"decimals","inputs":[],"outputs":[{"name":"","type":"uint8","internalType":"uint8"}],"stateMutability":"view"},{"type":"function","name":"hook","inputs":[],"outputs":[{"name":"","type":"address","internalType":"address"}],"stateMutability":"view"},{"type":"function","name":"name","inputs":[],"outputs":[{"name":"","type":"string","internalType":"string"}],"stateMutability":"view"},{"type":"function","name":"symbol","inputs":[],"outputs":[{"name":"","type":"string","internalType":"string"}],"stateMutability":"view"},{"type":"function","name":"totalSupply","inputs":[],"outputs":[{"name":"","type":"uint256","internalType":"uint256"}],"stateMutability":"view"},{"type":"function","name":"transfer","inputs":[{"name":"to","type":"address","internalType":"address"},{"name":"value","type":"uint256","internalType":"uint256"}],"outputs":[{"name":"","type":"bool","internalType":"bool"}],"stateMutability":"nonpayable"},{"type":"function","name":"transferFrom","inputs":[{"name":"from","type":"address","internalType":"address"},{"name":"to","type":"address","internalType":"address"},{"name":"value","type":"uint256","internalType":"uint256"}],"outputs":[{"name":"","type":"bool","internalType":"bool"}],"stateMutability":"nonpayable"},{"type":"event","name":"Approval","inputs":[{"name":"owner","type":"address","indexed":true,"internalType":"address"},{"name":"spender","type":"address","indexed":true,"internalType":"address"},{"name":"value","type":"uint256","indexed":false,"internalType":"uint256"}],"anonymous":false},{"type":"event","name":"Transfer","inputs":[{"name":"from","type":"address","indexed":true,"internalType":"address"},{"name":"to","type":"address","indexed":true,"internalType":"address"},{"name":"value","type":"uint256","indexed":false,"internalType":"uint256"}],"anonymous":false},{"type":"error","name":"ERC20InsufficientAllowance","inputs":[{"name":"spender","type":"address","internalType":"address"},{"name":"allowance","type":"uint256","internalType":"uint256"},{"name":"needed","type":"uint256","internalType":"uint256"}]},{"type":"error","name":"ERC20InsufficientBalance","inputs":[{"name":"sender","type":"address","internalType":"address"},{"name":"balance","type":"uint256","internalType":"uint256"},{"name":"needed","type":"uint256","internalType":"uint256"}]},{"type":"error","name":"ERC20InvalidApprover","inputs":[{"name":"approver","type":"address","internalType":"address"}]},{"type":"error","name":"ERC20InvalidReceiver","inputs":[{"name":"receiver","type":"address","internalType":"address"}]},{"type":"error","name":"ERC20InvalidSender","inputs":[{"name":"sender","type":"address","internalType":"address"}]},{"type":"error","name":"ERC20InvalidSpender","inputs":[{"name":"spender","type":"address","internalType":"address"}]},{"type":"error","name":"OnlyHook","inputs":[]}],"bytecode":{"object":"0x6040610100815234620003f65762000c88803803806200001f81620003fa565b928339810160a082820312620003f65781516001600160401b0390818111620003f657826200005091850162000420565b906020928385015190828211620003f6576200006e91860162000420565b936200007c86820162000490565b92620000996080620000916060850162000490565b930162000490565b928151818111620002ff576003908154906001948583811c93168015620003eb575b8a841014620003d7578190601f9384811162000384575b508a908483116001146200031f575f9262000313575b50505f1982851b1c191690851b1782555b8851928311620002ff5760049889548581811c91168015620002f4575b8a821014620002e15782811162000299575b508891841160011462000232579383949184925f9562000226575b50501b925f19911b1c19161785555b608083905260a05260e0524260c0526001600160a01b031691821562000210576002546b033b2e3c9fd0803ce800000091828201809211620001fd57506002555f8381528083528481208054830190558451918252917fddf252ad1be2c89b69c2b068fc378daa952ba7f163c4a11628f55a4df523b3ef91a3516107e29081620004a68239608051816102c9015260a05181610385015260c0518161011d015260e051816103420152f35b601190634e487b7160e01b5f525260245ffd5b6024905f85519163ec442f0560e01b8352820152fd5b015193505f8062000143565b9190601f198416928a5f52848a5f20945f5b8c8983831062000281575050501062000267575b50505050811b01855562000152565b01519060f8845f19921b161c191690555f80808062000258565b86860151895590970196948501948893500162000244565b8a5f52895f208380870160051c8201928c8810620002d7575b0160051c019086905b828110620002cb57505062000128565b5f8155018690620002bb565b92508192620002b2565b60228b634e487b7160e01b5f525260245ffd5b90607f169062000116565b634e487b7160e01b5f52604160045260245ffd5b015190505f80620000e8565b5f8681528c8120899550929190601f198516908e5b8282106200036c575050841162000354575b505050811b018255620000f9565b01515f1983871b60f8161c191690555f808062000346565b8385015186558b979095019493840193018e62000334565b909150845f528a5f208480850160051c8201928d8610620003cd575b918991869594930160051c01915b828110620003be575050620000d2565b5f8155859450899101620003ae565b92508192620003a0565b634e487b7160e01b5f52602260045260245ffd5b92607f1692620000bb565b5f80fd5b6040519190601f01601f191682016001600160401b03811183821017620002ff57604052565b919080601f84011215620003f65782516001600160401b038111620002ff5760209062000456601f8201601f19168301620003fa565b92818452828287010111620003f6575f5b8181106200047c5750825f9394955001015290565b858101830151848201840152820162000467565b51906001600160a01b0382168203620003f65756fe6080604090808252600480361015610015575f80fd5b5f3560e01c91826306fdde031461058757508163095ea7b3146104df57816318160ddd146104c157816323b872dd146103cf578163313ce567146103b457816338af3eed146103715781633f6dfdbc1461032e57816370a08231146102f85781637f5a7c7b146102b5578163902d55a51461028f57816395d89b411461017057508063a9059cbb14610140578063cf09e0d0146101065763dd62ed3e146100ba575f80fd5b346101025780600319360112610102576020906100d56106a6565b6100dd6106bc565b9060018060a01b038091165f5260018452825f2091165f528252805f20549051908152f35b5f80fd5b5034610102575f36600319011261010257602090517f00000000000000000000000000000000000000000000000000000000000000008152f35b503461010257806003193601126101025760209061016961015f6106a6565b60243590336106d2565b5160018152f35b8234610102575f366003190112610102578051905f835460018160011c9060018316928315610285575b6020938484108114610272578388529081156102565750600114610202575b505050829003601f01601f191682019267ffffffffffffffff8411838510176101ef57508291826101eb92528261065f565b0390f35b604190634e487b7160e01b5f525260245ffd5b5f878152929350837f8a35acfbc15ff81a39ae7d344fd709f28e8600b4aa8c65c6b64bfe7fe36bd19b5b83851061024257505050508301018480806101b9565b80548886018301529301928490820161022c565b60ff1916878501525050151560051b84010190508480806101b9565b602289634e487b7160e01b5f525260245ffd5b91607f169161019a565b8234610102575f36600319011261010257602090516b033b2e3c9fd0803ce80000008152f35b8234610102575f36600319011261010257517f00000000000000000000000000000000000000000000000000000000000000006001600160a01b03168152602090f35b8234610102576020366003190112610102576020906001600160a01b0361031d6106a6565b165f525f8252805f20549051908152f35b8234610102575f36600319011261010257517f00000000000000000000000000000000000000000000000000000000000000006001600160a01b03168152602090f35b8234610102575f36600319011261010257517f00000000000000000000000000000000000000000000000000000000000000006001600160a01b03168152602090f35b8234610102575f366003190112610102576020905160128152f35b905034610102576060366003190112610102576103ea6106a6565b6103f26106bc565b906044359260018060a01b038216805f526001602052855f20335f52602052855f2054915f19831061042d575b6020876101698888886106d2565b85831061049557811561047f57331561046957505f9081526001602090815286822033835281529086902091859003909155829061016961041f565b6024905f885191634a1406b160e11b8352820152fd5b6024905f88519163e602df0560e01b8352820152fd5b8651637dc7a0d960e11b8152339181019182526020820193909352604081018690528291506060010390fd5b8234610102575f366003190112610102576020906002549051908152f35b82346101025780600319360112610102576104f86106a6565b602435903315610571576001600160a01b031690811561055b5760209350335f5260018452825f20825f52845280835f205582519081527f8c5be1e5ebec7d5bd14f71427d1e84f3dd0314c0f7b2291e5b200ac8c7c3b925843392a35160018152f35b8251634a1406b160e11b81525f81860152602490fd5b825163e602df0560e01b81525f81860152602490fd5b8334610102575f366003190112610102575f60035460018160011c9060018316928315610655575b60209384841081146102725783885290811561025657506001146105ff57505050829003601f01601f191682019267ffffffffffffffff8411838510176101ef57508291826101eb92528261065f565b60035f908152929350837fc2575a0e9e593c00f959f8c92f12db2869c3395a3b0502d05e2516446f71f85b5b83851061064157505050508301018480806101b9565b80548886018301529301928490820161062b565b91607f16916105af565b602080825282518183018190529093925f5b82811061069257505060409293505f838284010152601f8019910116010190565b818101860151848201604001528501610671565b600435906001600160a01b038216820361010257565b602435906001600160a01b038216820361010257565b916001600160a01b03808416928315610794571692831561077c57825f525f60205260405f20549082821061074a5750817fddf252ad1be2c89b69c2b068fc378daa952ba7f163c4a11628f55a4df523b3ef92602092855f525f84520360405f2055845f5260405f20818154019055604051908152a3565b60405163391434e360e21b81526001600160a01b03919091166004820152602481019190915260448101829052606490fd5b60405163ec442f0560e01b81525f6004820152602490fd5b604051634b637e8f60e11b81525f6004820152602490fdfea2646970667358221220bc4b42940df1ec9a5d9d6bd9ce2225ceb2cad3b2414eb924cbb6547e45e6cd5564736f6c63430008180033","linkReferences":{}},"methodIdentifiers":{"TOTAL_SUPPLY()":"902d55a5","agentWallet()":"3f6dfdbc","allowance(address,address)":"dd62ed3e","approve(address,uint256)":"095ea7b3","balanceOf(address)":"70a08231","beneficiary()":"38af3eed","createdAt()":"cf09e0d0","decimals()":"313ce567","hook()":"7f5a7c7b","name()":"06fdde03","symbol()":"95d89b41","totalSupply()":"18160ddd","transfer(address,uint256)":"a9059cbb","transferFrom(address,address,uint256)":"23b872dd"},"id":85}